{
  "_format": "hh-sol-artifact-1",
  "contractName": "TrustRegistry",
  "sourceName": "contracts/TrustRegistry.sol",
  "abi": [
    {
      "inputs": [],
      "stateMutability": "nonpayable",
      "type": "constructor"
    },
    {
      "inputs": [
        {
          "internalType": "address",
          "name": "owner",
          "type": "address"
        }
      ],
      "name": "OwnableInvalidOwner",
      "type": "error"
    },
    {
      "inputs": [
        {
          "internalType": "address",
          "name": "account",
          "type": "address"
        }
      ],
      "name": "OwnableUnauthorizedAccount",
      "type": "error"
    },
    {
      "anonymous": false,
      "inputs": [
        {
          "indexed": true,
          "internalType": "address",
          "name": "previousOwner",
          "type": "address"
        },
        {
          "indexed": true,
          "internalType": "address",
          "name": "newOwner",
          "type": "address"
        }
      ],
      "name": "OwnershipTransferred",
      "type": "event"
    },
    {
      "anonymous": false,
      "inputs": [
        {
          "indexed": true,
          "internalType": "string",
          "name": "invoiceId",
          "type": "string"
        },
        {
          "indexed": false,
          "internalType": "bytes32",
          "name": "trustHash",
          "type": "bytes32"
        },
        {
          "indexed": false,
          "internalType": "uint256",
          "name": "timestamp",
          "type": "uint256"
        }
      ],
      "name": "TrustHashCommitted",
      "type": "event"
    },
    {
      "anonymous": false,
      "inputs": [
        {
          "indexed": true,
          "internalType": "string",
          "name": "invoiceId",
          "type": "string"
        },
        {
          "indexed": false,
          "internalType": "bytes32",
          "name": "verificationHash",
          "type": "bytes32"
        },
        {
          "indexed": false,
          "internalType": "enum TrustRegistry.VerificationType",
          "name": "verificationType",
          "type": "uint8"
        }
      ],
      "name": "VerificationCommitted",
      "type": "event"
    },
    {
      "inputs": [
        {
          "internalType": "string",
          "name": "invoiceId",
          "type": "string"
        },
        {
          "internalType": "bytes32",
          "name": "trustHash",
          "type": "bytes32"
        }
      ],
      "name": "commitTrustHash",
      "outputs": [],
      "stateMutability": "nonpayable",
      "type": "function"
    },
    {
      "inputs": [
        {
          "internalType": "string",
          "name": "invoiceId",
          "type": "string"
        },
        {
          "internalType": "bytes32",
          "name": "signatureHash",
          "type": "bytes32"
        }
      ],
      "name": "commitWalletVerification",
      "outputs": [],
      "stateMutability": "nonpayable",
      "type": "function"
    },
    {
      "inputs": [
        {
          "internalType": "string",
          "name": "invoiceId",
          "type": "string"
        },
        {
          "internalType": "bytes32",
          "name": "confirmationHash",
          "type": "bytes32"
        }
      ],
      "name": "commitWebVerification",
      "outputs": [],
      "stateMutability": "nonpayable",
      "type": "function"
    },
    {
      "inputs": [
        {
          "internalType": "string",
          "name": "invoiceId",
          "type": "string"
        }
      ],
      "name": "getTrustHash",
      "outputs": [
        {
          "internalType": "bytes32",
          "name": "",
          "type": "bytes32"
        }
      ],
      "stateMutability": "view",
      "type": "function"
    },
    {
      "inputs": [
        {
          "internalType": "string",
          "name": "invoiceId",
          "type": "string"
        }
      ],
      "name": "getVerification",
      "outputs": [
        {
          "internalType": "bytes32",
          "name": "",
          "type": "bytes32"
        },
        {
          "internalType": "enum TrustRegistry.VerificationType",
          "name": "",
          "type": "uint8"
        }
      ],
      "stateMutability": "view",
      "type": "function"
    },
    {
      "inputs": [
        {
          "internalType": "string",
          "name": "invoiceId",
          "type": "string"
        }
      ],
      "name": "isVerified",
      "outputs": [
        {
          "internalType": "bool",
          "name": "",
          "type": "bool"
        }
      ],
      "stateMutability": "view",
      "type": "function"
    },
    {
      "inputs": [],
      "name": "owner",
      "outputs": [
        {
          "internalType": "address",
          "name": "",
          "type": "address"
        }
      ],
      "stateMutability": "view",
      "type": "function"
    },
    {
      "inputs": [],
      "name": "renounceOwnership",
      "outputs": [],
      "stateMutability": "nonpayable",
      "type": "function"
    },
    {
      "inputs": [
        {
          "internalType": "address",
          "name": "newOwner",
          "type": "address"
        }
      ],
      "name": "transferOwnership",
      "outputs": [],
      "stateMutability": "nonpayable",
      "type": "function"
    },
    {
      "inputs": [
        {
          "internalType": "string",
          "name": "",
          "type": "string"
        }
      ],
      "name": "trustHashes",
      "outputs": [
        {
          "internalType": "bytes32",
          "name": "",
          "type": "bytes32"
        }
      ],
      "stateMutability": "view",
      "type": "function"
    },
    {
      "inputs": [
        {
          "internalType": "string",
          "name": "",
          "type": "string"
        }
      ],
      "name": "verificationHashes",
      "outputs": [
        {
          "internalType": "bytes32",
          "name": "",
          "type": "bytes32"
        }
      ],
      "stateMutability": "view",
      "type": "function"
    },
    {
      "inputs": [
        {
          "internalType": "string",
          "name": "",
          "type": "string"
        }
      ],
      "name": "verificationTypes",
      "outputs": [
        {
          "internalType": "enum TrustRegistry.VerificationType",
          "name": "",
          "type": "uint8"
        }
      ],
      "stateMutability": "view",
      "type": "function"
    }
  ],
  "bytecode": "0x608060405234801561001057600080fd5b50338061003757604051631e4fbdf760e01b81526000600482015260240160405180910390fd5b61004081610046565b50610096565b600080546001600160a01b038381166001600160a01b0319831681178455604051919092169283917f8be0079c531659141344cd1fd0a4f28419497f9722a3daafe3b4186f6b6457e09190a35050565b6108c8806100a56000396000f3fe608060405234801561001057600080fd5b50600436106100b45760003560e01c80637f31cfa9116100715780637f31cfa91461015d5780638da5cb5b14610198578063a3261963146101b3578063b05b3917146101c6578063d0a028d1146101f1578063f2fde38b1461021257600080fd5b806302b85fa0146100b95780631a22e681146100ce5780631e7e1dc6146100e1578063210f48af1461011f578063234c76d514610132578063715018a614610155575b600080fd5b6100cc6100c7366004610751565b610225565b005b6100cc6100dc366004610751565b610315565b61010c6100ef366004610796565b805160208183018101805160018252928201919093012091525481565b6040519081526020015b60405180910390f35b61010c61012d366004610796565b61042b565b610145610140366004610796565b610453565b6040519015158152602001610116565b6100cc610481565b61018b61016b366004610796565b805160208183018101805160038252928201919093012091525460ff1681565b604051610116919061080b565b6000546040516001600160a01b039091168152602001610116565b6100cc6101c1366004610751565b610495565b61010c6101d4366004610796565b805160208183018101805160028252928201919093012091525481565b6102046101ff366004610796565b6105a3565b60405161011692919061081f565b6100cc61022036600461083a565b6105f3565b61022d610631565b6000801b6001836040516102419190610863565b908152602001604051809103902054146102a25760405162461bcd60e51b815260206004820152601c60248201527f5472757374206861736820616c726561647920636f6d6d69747465640000000060448201526064015b60405180910390fd5b806001836040516102b39190610863565b908152604051908190036020018120919091556102d1908390610863565b60408051918290038220838352426020840152917fa18c7c9b7a028b4d3b5a2d4a9411d3a7b85d8b9363e67b60ff37301d4cc0404691015b60405180910390a25050565b61031d610631565b6000801b6002836040516103319190610863565b908152602001604051809103902054146103805760405162461bcd60e51b815260206004820152601060248201526f105b1c9958591e481d995c9a599a595960821b6044820152606401610299565b806002836040516103919190610863565b90815260200160405180910390208190555060026003836040516103b59190610863565b908152604051908190036020019020805460ff191660018360028111156103de576103de6107d3565b0217905550816040516103f19190610863565b60405180910390207f97262b24baef48f505be367ecb981993fbc99d26b3a33cff4bb91fe82285ea6982600260405161030992919061081f565b600060018260405161043d9190610863565b9081526020016040518091039020549050919050565b60008060001b6002836040516104699190610863565b90815260200160405180910390205414159050919050565b610489610631565b610493600061065e565b565b6000801b6002836040516104a99190610863565b908152602001604051809103902054146104f85760405162461bcd60e51b815260206004820152601060248201526f105b1c9958591e481d995c9a599a595960821b6044820152606401610299565b806002836040516105099190610863565b908152602001604051809103902081905550600160038360405161052d9190610863565b908152604051908190036020019020805460ff19166001836002811115610556576105566107d3565b0217905550816040516105699190610863565b60405180910390207f97262b24baef48f505be367ecb981993fbc99d26b3a33cff4bb91fe82285ea6982600160405161030992919061081f565b6000806002836040516105b69190610863565b9081526020016040518091039020546003846040516105d59190610863565b90815260405190819003602001902054909460ff9091169350915050565b6105fb610631565b6001600160a01b03811661062557604051631e4fbdf760e01b815260006004820152602401610299565b61062e8161065e565b50565b6000546001600160a01b031633146104935760405163118cdaa760e01b8152336004820152602401610299565b600080546001600160a01b038381166001600160a01b0319831681178455604051919092169283917f8be0079c531659141344cd1fd0a4f28419497f9722a3daafe3b4186f6b6457e09190a35050565b634e487b7160e01b600052604160045260246000fd5b600082601f8301126106d557600080fd5b813567ffffffffffffffff808211156106f0576106f06106ae565b604051601f8301601f19908116603f01168101908282118183101715610718576107186106ae565b8160405283815286602085880101111561073157600080fd5b836020870160208301376000602085830101528094505050505092915050565b6000806040838503121561076457600080fd5b823567ffffffffffffffff81111561077b57600080fd5b610787858286016106c4565b95602094909401359450505050565b6000602082840312156107a857600080fd5b813567ffffffffffffffff8111156107bf57600080fd5b6107cb848285016106c4565b949350505050565b634e487b7160e01b600052602160045260246000fd5b6003811061080757634e487b7160e01b600052602160045260246000fd5b9052565b6020810161081982846107e9565b92915050565b8281526040810161083360208301846107e9565b9392505050565b60006020828403121561084c57600080fd5b81356001600160a01b038116811461083357600080fd5b6000825160005b81811015610884576020818601810151858301520161086a565b50600092019182525091905056fea2646970667358221220cca58a0f479f17cd3807dc5984ca20c058b7ab9d3fb041c4a65e8871485f82c164736f6c63430008140033",
  "linkReferences": {},
  "deployedLinkReferences": {}
}