{
  "_format": "hh-sol-artifact-1",
  "contractName": "Escrow",
  "sourceName": "contracts/Escrow.sol",
  "abi": [
    {
      "inputs": [
        {
          "internalType": "address",
          "name": "_invoiceNFT",
          "type": "address"
        }
      ],
      "stateMutability": "nonpayable",
      "type": "constructor"
    },
    {
      "inputs": [
        {
          "internalType": "address",
          "name": "owner",
          "type": "address"
        }
      ],
      "name": "OwnableInvalidOwner",
      "type": "error"
    },
    {
      "inputs": [
        {
          "internalType": "address",
          "name": "account",
          "type": "address"
        }
      ],
      "name": "OwnableUnauthorizedAccount",
      "type": "error"
    },
    {
      "inputs": [],
      "name": "ReentrancyGuardReentrantCall",
      "type": "error"
    },
    {
      "anonymous": false,
      "inputs": [
        {
          "indexed": true,
          "internalType": "uint256",
          "name": "tokenId",
          "type": "uint256"
        },
        {
          "indexed": true,
          "internalType": "address",
          "name": "seller",
          "type": "address"
        },
        {
          "indexed": false,
          "internalType": "uint256",
          "name": "amount",
          "type": "uint256"
        }
      ],
      "name": "FundsReleasedToSeller",
      "type": "event"
    },
    {
      "anonymous": false,
      "inputs": [
        {
          "indexed": true,
          "internalType": "uint256",
          "name": "tokenId",
          "type": "uint256"
        }
      ],
      "name": "InvoiceDefaulted",
      "type": "event"
    },
    {
      "anonymous": false,
      "inputs": [
        {
          "indexed": true,
          "internalType": "uint256",
          "name": "tokenId",
          "type": "uint256"
        },
        {
          "indexed": true,
          "internalType": "address",
          "name": "investor",
          "type": "address"
        },
        {
          "indexed": false,
          "internalType": "uint256",
          "name": "amount",
          "type": "uint256"
        },
        {
          "indexed": false,
          "internalType": "uint256",
          "name": "expectedYield",
          "type": "uint256"
        }
      ],
      "name": "InvoiceFunded",
      "type": "event"
    },
    {
      "anonymous": false,
      "inputs": [
        {
          "indexed": true,
          "internalType": "uint256",
          "name": "tokenId",
          "type": "uint256"
        },
        {
          "indexed": true,
          "internalType": "address",
          "name": "investor",
          "type": "address"
        },
        {
          "indexed": false,
          "internalType": "uint256",
          "name": "principal",
          "type": "uint256"
        },
        {
          "indexed": false,
          "internalType": "uint256",
          "name": "yield",
          "type": "uint256"
        }
      ],
      "name": "InvoiceSettled",
      "type": "event"
    },
    {
      "anonymous": false,
      "inputs": [
        {
          "indexed": true,
          "internalType": "uint256",
          "name": "tokenId",
          "type": "uint256"
        },
        {
          "indexed": false,
          "internalType": "uint256",
          "name": "penalty",
          "type": "uint256"
        }
      ],
      "name": "LatePaymentSettled",
      "type": "event"
    },
    {
      "anonymous": false,
      "inputs": [
        {
          "indexed": true,
          "internalType": "address",
          "name": "previousOwner",
          "type": "address"
        },
        {
          "indexed": true,
          "internalType": "address",
          "name": "newOwner",
          "type": "address"
        }
      ],
      "name": "OwnershipTransferred",
      "type": "event"
    },
    {
      "inputs": [],
      "name": "baseYieldRate",
      "outputs": [
        {
          "internalType": "uint256",
          "name": "",
          "type": "uint256"
        }
      ],
      "stateMutability": "view",
      "type": "function"
    },
    {
      "inputs": [
        {
          "internalType": "uint256",
          "name": "amount",
          "type": "uint256"
        },
        {
          "internalType": "uint256",
          "name": "dueDate",
          "type": "uint256"
        }
      ],
      "name": "calculateYield",
      "outputs": [
        {
          "internalType": "uint256",
          "name": "",
          "type": "uint256"
        }
      ],
      "stateMutability": "view",
      "type": "function"
    },
    {
      "inputs": [
        {
          "internalType": "uint256",
          "name": "tokenId",
          "type": "uint256"
        }
      ],
      "name": "fundInvoice",
      "outputs": [],
      "stateMutability": "payable",
      "type": "function"
    },
    {
      "inputs": [
        {
          "internalType": "uint256",
          "name": "",
          "type": "uint256"
        }
      ],
      "name": "fundings",
      "outputs": [
        {
          "internalType": "uint256",
          "name": "tokenId",
          "type": "uint256"
        },
        {
          "internalType": "address",
          "name": "investor",
          "type": "address"
        },
        {
          "internalType": "uint256",
          "name": "principal",
          "type": "uint256"
        },
        {
          "internalType": "uint256",
          "name": "expectedYield",
          "type": "uint256"
        },
        {
          "internalType": "uint256",
          "name": "fundedAt",
          "type": "uint256"
        },
        {
          "internalType": "bool",
          "name": "settled",
          "type": "bool"
        }
      ],
      "stateMutability": "view",
      "type": "function"
    },
    {
      "inputs": [
        {
          "internalType": "uint256",
          "name": "tokenId",
          "type": "uint256"
        }
      ],
      "name": "getFunding",
      "outputs": [
        {
          "components": [
            {
              "internalType": "uint256",
              "name": "tokenId",
              "type": "uint256"
            },
            {
              "internalType": "address",
              "name": "investor",
              "type": "address"
            },
            {
              "internalType": "uint256",
              "name": "principal",
              "type": "uint256"
            },
            {
              "internalType": "uint256",
              "name": "expectedYield",
              "type": "uint256"
            },
            {
              "internalType": "uint256",
              "name": "fundedAt",
              "type": "uint256"
            },
            {
              "internalType": "bool",
              "name": "settled",
              "type": "bool"
            }
          ],
          "internalType": "struct Escrow.FundingDetails",
          "name": "",
          "type": "tuple"
        }
      ],
      "stateMutability": "view",
      "type": "function"
    },
    {
      "inputs": [],
      "name": "gracePeriod",
      "outputs": [
        {
          "internalType": "uint256",
          "name": "",
          "type": "uint256"
        }
      ],
      "stateMutability": "view",
      "type": "function"
    },
    {
      "inputs": [],
      "name": "invoiceNFT",
      "outputs": [
        {
          "internalType": "contract IInvoiceNFT",
          "name": "",
          "type": "address"
        }
      ],
      "stateMutability": "view",
      "type": "function"
    },
    {
      "inputs": [],
      "name": "latePenaltyRate",
      "outputs": [
        {
          "internalType": "uint256",
          "name": "",
          "type": "uint256"
        }
      ],
      "stateMutability": "view",
      "type": "function"
    },
    {
      "inputs": [
        {
          "internalType": "uint256",
          "name": "tokenId",
          "type": "uint256"
        }
      ],
      "name": "markDefault",
      "outputs": [],
      "stateMutability": "nonpayable",
      "type": "function"
    },
    {
      "inputs": [],
      "name": "owner",
      "outputs": [
        {
          "internalType": "address",
          "name": "",
          "type": "address"
        }
      ],
      "stateMutability": "view",
      "type": "function"
    },
    {
      "inputs": [],
      "name": "renounceOwnership",
      "outputs": [],
      "stateMutability": "nonpayable",
      "type": "function"
    },
    {
      "inputs": [
        {
          "internalType": "uint256",
          "name": "newPeriod",
          "type": "uint256"
        }
      ],
      "name": "setGracePeriod",
      "outputs": [],
      "stateMutability": "nonpayable",
      "type": "function"
    },
    {
      "inputs": [
        {
          "internalType": "uint256",
          "name": "newRate",
          "type": "uint256"
        }
      ],
      "name": "setYieldRate",
      "outputs": [],
      "stateMutability": "nonpayable",
      "type": "function"
    },
    {
      "inputs": [
        {
          "internalType": "uint256",
          "name": "tokenId",
          "type": "uint256"
        }
      ],
      "name": "settleInvoice",
      "outputs": [],
      "stateMutability": "payable",
      "type": "function"
    },
    {
      "inputs": [
        {
          "internalType": "address",
          "name": "newOwner",
          "type": "address"
        }
      ],
      "name": "transferOwnership",
      "outputs": [],
      "stateMutability": "nonpayable",
      "type": "function"
    }
  ],
  "bytecode": "0x60806040526101f460035562093a80600455603260055534801561002257600080fd5b50604051611401380380611401833981016040819052610041916100ea565b338061006757604051631e4fbdf760e01b81526000600482015260240160405180910390fd5b6100708161009a565b5060018055600280546001600160a01b0319166001600160a01b039290921691909117905561011a565b600080546001600160a01b038381166001600160a01b0319831681178455604051919092169283917f8be0079c531659141344cd1fd0a4f28419497f9722a3daafe3b4186f6b6457e09190a35050565b6000602082840312156100fc57600080fd5b81516001600160a01b038116811461011357600080fd5b9392505050565b6112d8806101296000396000f3fe6080604052600436106100e85760003560e01c8063a06db7dc1161008a578063f266a21311610059578063f266a2131461030f578063f2f6596014610325578063f2fde38b14610345578063ff3c475b1461036557600080fd5b8063a06db7dc146101d3578063d13cb1fb146101e9578063e1d927c81461027d578063ebed4bd41461029d57600080fd5b80635b94446c116100c65780635b94446c1461017a57806364d5fa471461018d578063715018a6146101a05780638da5cb5b146101b557600080fd5b8063043cbe5b146100ed5780631411dab0146101205780634bb6f06d14610142575b600080fd5b3480156100f957600080fd5b5061010d610108366004610f6e565b61037b565b6040519081526020015b60405180910390f35b34801561012c57600080fd5b5061014061013b366004610f90565b6103cd565b005b34801561014e57600080fd5b50600254610162906001600160a01b031681565b6040516001600160a01b039091168152602001610117565b610140610188366004610f90565b6103da565b61014061019b366004610f90565b6107ec565b3480156101ac57600080fd5b50610140610bad565b3480156101c157600080fd5b506000546001600160a01b0316610162565b3480156101df57600080fd5b5061010d60045481565b3480156101f557600080fd5b50610246610204366004610f90565b60066020526000908152604090208054600182015460028301546003840154600485015460059095015493946001600160a01b03909316939192909160ff1686565b604080519687526001600160a01b0390951660208701529385019290925260608401526080830152151560a082015260c001610117565b34801561028957600080fd5b50610140610298366004610f90565b610bc1565b3480156102a957600080fd5b506102bd6102b8366004610f90565b610dd4565b6040516101179190815181526020808301516001600160a01b03169082015260408083015190820152606080830151908201526080808301519082015260a09182015115159181019190915260c00190565b34801561031b57600080fd5b5061010d60035481565b34801561033157600080fd5b50610140610340366004610f90565b610e7f565b34801561035157600080fd5b50610140610360366004610fbe565b610e8c565b34801561037157600080fd5b5061010d60055481565b6000806103884284610ff8565b90506000610399620151808361100b565b9050620493e081600354876103ae919061102d565b6103b8919061102d565b6103c2919061100b565b925050505b92915050565b6103d5610ec7565b600355565b6103e2610ef4565b600254604051631d11e60560e11b8152600481018390526000916001600160a01b031690633a23cc0a90602401600060405180830381865afa15801561042c573d6000803e3d6000fd5b505050506040513d6000823e601f3d908101601f191682016040526104549190810190611159565b60008381526006602052604090209091506003826101000151600581111561047e5761047e611279565b146104c55760405162461bcd60e51b8152602060048201526012602482015271125b9d9bda58d9481b9bdd08199d5b99195960721b60448201526064015b60405180910390fd5b81608001516001600160a01b0316336001600160a01b0316146105225760405162461bcd60e51b81526020600482015260156024820152744f6e6c792062757965722063616e20736574746c6560581b60448201526064016104bc565b600581015460ff16156105695760405162461bcd60e51b815260206004820152600f60248201526e105b1c9958591e481cd95d1d1b1959608a1b60448201526064016104bc565b60008160030154826002015461057f919061128f565b9050600083604001514211156105eb576000620151808560400151426105a59190610ff8565b6105af919061100b565b90506127108160055486600201546105c7919061102d565b6105d1919061102d565b6105db919061100b565b91506105e7828461128f565b9250505b813410156106325760405162461bcd60e51b8152602060048201526014602482015273125b9cdd59999a58da595b9d081c185e5b595b9d60621b60448201526064016104bc565b60058301805460ff191660019081179091558301546040516000916001600160a01b03169034908381818185875af1925050503d8060008114610691576040519150601f19603f3d011682016040523d82523d6000602084013e610696565b606091505b50509050806106e05760405162461bcd60e51b81526020600482015260166024820152752330b4b632b2103a37903830bc9034b73b32b9ba37b960511b60448201526064016104bc565b600254604051637e5634b960e01b8152600481018890526001600160a01b0390911690637e5634b990602401600060405180830381600087803b15801561072657600080fd5b505af115801561073a573d6000803e3d6000fd5b5050506001850154600286015460038701546040516001600160a01b03909316935089927fea27f609b222b8444be90dcc68af4a864c0214c964892f8323ebbb211adf25e69261079292908252602082015260400190565b60405180910390a381156107db57857ff097defcaab5dd8de2799636f633829f973880ab550d50f6e1b246c9e4cfb188836040516107d291815260200190565b60405180910390a25b50505050506107e960018055565b50565b6107f4610ef4565b600254604051631d11e60560e11b8152600481018390526000916001600160a01b031690633a23cc0a90602401600060405180830381865afa15801561083e573d6000803e3d6000fd5b505050506040513d6000823e601f3d908101601f191682016040526108669190810190611159565b90506002816101000151600581111561088157610881611279565b146108c35760405162461bcd60e51b8152602060048201526012602482015271125b9d9bda58d9481b9bdd081b1a5cdd195960721b60448201526064016104bc565b806020015134101561090c5760405162461bcd60e51b8152602060048201526012602482015271496e73756666696369656e742066756e647360701b60448201526064016104bc565b6000828152600660205260409020600101546001600160a01b0316156109655760405162461bcd60e51b815260206004820152600e60248201526d105b1c9958591e48199d5b99195960921b60448201526064016104bc565b60006109798260200151836040015161037b565b6040805160c08101825285815233602080830182815234848601818152606086018881524260808801908152600060a089018181528e825260069097528990209751885593516001880180546001600160a01b0319166001600160a01b03928316179055915160028089019190915590516003880155925160048088019190915593516005909601805460ff19169615159690961790955590549451636d55ae6d60e11b815291820189905260248201929092526044810191909152929350169063daab5cda90606401600060405180830381600087803b158015610a5d57600080fd5b505af1158015610a71573d6000803e3d6000fd5b50505050600082606001516001600160a01b03163460405160006040518083038185875af1925050503d8060008114610ac6576040519150601f19603f3d011682016040523d82523d6000602084013e610acb565b606091505b5050905080610b1c5760405162461bcd60e51b815260206004820152601e60248201527f4661696c656420746f2073656e642066756e647320746f2073656c6c6572000060448201526064016104bc565b6040805134815260208101849052339186917f505d13f6237f1fb1f412dfc253f6124671aa7784bb9b98411e6183eb11bdb8a5910160405180910390a382606001516001600160a01b0316847fec6beaacb5ab60d738ff9ff04e453f55a8d2940dd235fea818f83135d1af8b1c34604051610b9991815260200190565b60405180910390a35050506107e960018055565b610bb5610ec7565b610bbf6000610f1e565b565b610bc9610ec7565b600254604051631d11e60560e11b8152600481018390526000916001600160a01b031690633a23cc0a90602401600060405180830381865afa158015610c13573d6000803e3d6000fd5b505050506040513d6000823e601f3d908101601f19168201604052610c3b9190810190611159565b600083815260066020526040902090915060038261010001516005811115610c6557610c65611279565b14610ca75760405162461bcd60e51b8152602060048201526012602482015271125b9d9bda58d9481b9bdd08199d5b99195960721b60448201526064016104bc565b600581015460ff1615610cee5760405162461bcd60e51b815260206004820152600f60248201526e105b1c9958591e481cd95d1d1b1959608a1b60448201526064016104bc565b6004548260400151610d00919061128f565b4211610d465760405162461bcd60e51b815260206004820152601560248201527423b930b1b2903832b934b7b2103737ba1037bb32b960591b60448201526064016104bc565b600254604051630732164560e41b8152600481018590526001600160a01b0390911690637321645090602401600060405180830381600087803b158015610d8c57600080fd5b505af1158015610da0573d6000803e3d6000fd5b50506040518592507fdad3d8c24c5e0a13ffb0c0fa573014d3c4ba10367d5cba3549fa7c9ac18b93a49150600090a2505050565b610e186040518060c001604052806000815260200160006001600160a01b031681526020016000815260200160008152602001600081526020016000151581525090565b50600090815260066020908152604091829020825160c0810184528154815260018201546001600160a01b031692810192909252600281015492820192909252600382015460608201526004820154608082015260059091015460ff16151560a082015290565b610e87610ec7565b600455565b610e94610ec7565b6001600160a01b038116610ebe57604051631e4fbdf760e01b8152600060048201526024016104bc565b6107e981610f1e565b6000546001600160a01b03163314610bbf5760405163118cdaa760e01b81523360048201526024016104bc565b600260015403610f1757604051633ee5aeb560e01b815260040160405180910390fd5b6002600155565b600080546001600160a01b038381166001600160a01b0319831681178455604051919092169283917f8be0079c531659141344cd1fd0a4f28419497f9722a3daafe3b4186f6b6457e09190a35050565b60008060408385031215610f8157600080fd5b50508035926020909101359150565b600060208284031215610fa257600080fd5b5035919050565b6001600160a01b03811681146107e957600080fd5b600060208284031215610fd057600080fd5b8135610fdb81610fa9565b9392505050565b634e487b7160e01b600052601160045260246000fd5b818103818111156103c7576103c7610fe2565b60008261102857634e487b7160e01b600052601260045260246000fd5b500490565b80820281158282048414176103c7576103c7610fe2565b634e487b7160e01b600052604160045260246000fd5b604051610180810167ffffffffffffffff8111828210171561107e5761107e611044565b60405290565b604051601f8201601f1916810167ffffffffffffffff811182821017156110ad576110ad611044565b604052919050565b600082601f8301126110c657600080fd5b815167ffffffffffffffff8111156110e0576110e0611044565b60206110f4601f8301601f19168201611084565b828152858284870101111561110857600080fd5b60005b8381101561112657858101830151828201840152820161110b565b506000928101909101919091529392505050565b805161114581610fa9565b919050565b80516006811061114557600080fd5b60006020828403121561116b57600080fd5b815167ffffffffffffffff8082111561118357600080fd5b90830190610180828603121561119857600080fd5b6111a061105a565b8251828111156111af57600080fd5b6111bb878286016110b5565b82525060208301516020820152604083015160408201526111de6060840161113a565b60608201526111ef6080840161113a565b608082015260a08301518281111561120657600080fd5b611212878286016110b5565b60a08301525060c083015160c082015260e083015160e0820152610100915061123c82840161114a565b8282015261012091508183015182820152610140915061125d82840161113a565b9181019190915261016091820151918101919091529392505050565b634e487b7160e01b600052602160045260246000fd5b808201808211156103c7576103c7610fe256fea26469706673582212200f48e1db861cacccbe4205e87662672cbcd15936fc5aa1c7c4129e714613d6ee64736f6c63430008140033",
  "linkReferences": {},
  "deployedLinkReferences": {}
}