{
  "_format": "hh-sol-artifact-1",
  "contractName": "InvoiceNFT",
  "sourceName": "contracts/InvoiceNFT.sol",
  "abi": [
    {
      "inputs": [],
      "stateMutability": "nonpayable",
      "type": "constructor"
    },
    {
      "inputs": [
        {
          "internalType": "address",
          "name": "sender",
          "type": "address"
        },
        {
          "internalType": "uint256",
          "name": "tokenId",
          "type": "uint256"
        },
        {
          "internalType": "address",
          "name": "owner",
          "type": "address"
        }
      ],
      "name": "ERC721IncorrectOwner",
      "type": "error"
    },
    {
      "inputs": [
        {
          "internalType": "address",
          "name": "operator",
          "type": "address"
        },
        {
          "internalType": "uint256",
          "name": "tokenId",
          "type": "uint256"
        }
      ],
      "name": "ERC721InsufficientApproval",
      "type": "error"
    },
    {
      "inputs": [
        {
          "internalType": "address",
          "name": "approver",
          "type": "address"
        }
      ],
      "name": "ERC721InvalidApprover",
      "type": "error"
    },
    {
      "inputs": [
        {
          "internalType": "address",
          "name": "operator",
          "type": "address"
        }
      ],
      "name": "ERC721InvalidOperator",
      "type": "error"
    },
    {
      "inputs": [
        {
          "internalType": "address",
          "name": "owner",
          "type": "address"
        }
      ],
      "name": "ERC721InvalidOwner",
      "type": "error"
    },
    {
      "inputs": [
        {
          "internalType": "address",
          "name": "receiver",
          "type": "address"
        }
      ],
      "name": "ERC721InvalidReceiver",
      "type": "error"
    },
    {
      "inputs": [
        {
          "internalType": "address",
          "name": "sender",
          "type": "address"
        }
      ],
      "name": "ERC721InvalidSender",
      "type": "error"
    },
    {
      "inputs": [
        {
          "internalType": "uint256",
          "name": "tokenId",
          "type": "uint256"
        }
      ],
      "name": "ERC721NonexistentToken",
      "type": "error"
    },
    {
      "inputs": [
        {
          "internalType": "address",
          "name": "owner",
          "type": "address"
        }
      ],
      "name": "OwnableInvalidOwner",
      "type": "error"
    },
    {
      "inputs": [
        {
          "internalType": "address",
          "name": "account",
          "type": "address"
        }
      ],
      "name": "OwnableUnauthorizedAccount",
      "type": "error"
    },
    {
      "anonymous": false,
      "inputs": [
        {
          "indexed": true,
          "internalType": "address",
          "name": "owner",
          "type": "address"
        },
        {
          "indexed": true,
          "internalType": "address",
          "name": "approved",
          "type": "address"
        },
        {
          "indexed": true,
          "internalType": "uint256",
          "name": "tokenId",
          "type": "uint256"
        }
      ],
      "name": "Approval",
      "type": "event"
    },
    {
      "anonymous": false,
      "inputs": [
        {
          "indexed": true,
          "internalType": "address",
          "name": "owner",
          "type": "address"
        },
        {
          "indexed": true,
          "internalType": "address",
          "name": "operator",
          "type": "address"
        },
        {
          "indexed": false,
          "internalType": "bool",
          "name": "approved",
          "type": "bool"
        }
      ],
      "name": "ApprovalForAll",
      "type": "event"
    },
    {
      "anonymous": false,
      "inputs": [
        {
          "indexed": false,
          "internalType": "uint256",
          "name": "_fromTokenId",
          "type": "uint256"
        },
        {
          "indexed": false,
          "internalType": "uint256",
          "name": "_toTokenId",
          "type": "uint256"
        }
      ],
      "name": "BatchMetadataUpdate",
      "type": "event"
    },
    {
      "anonymous": false,
      "inputs": [
        {
          "indexed": true,
          "internalType": "uint256",
          "name": "tokenId",
          "type": "uint256"
        }
      ],
      "name": "InvoiceDefaulted",
      "type": "event"
    },
    {
      "anonymous": false,
      "inputs": [
        {
          "indexed": true,
          "internalType": "uint256",
          "name": "tokenId",
          "type": "uint256"
        },
        {
          "indexed": false,
          "internalType": "address",
          "name": "investor",
          "type": "address"
        },
        {
          "indexed": false,
          "internalType": "uint256",
          "name": "amount",
          "type": "uint256"
        }
      ],
      "name": "InvoiceFunded",
      "type": "event"
    },
    {
      "anonymous": false,
      "inputs": [
        {
          "indexed": true,
          "internalType": "uint256",
          "name": "tokenId",
          "type": "uint256"
        }
      ],
      "name": "InvoiceListed",
      "type": "event"
    },
    {
      "anonymous": false,
      "inputs": [
        {
          "indexed": true,
          "internalType": "uint256",
          "name": "tokenId",
          "type": "uint256"
        },
        {
          "indexed": false,
          "internalType": "string",
          "name": "invoiceId",
          "type": "string"
        },
        {
          "indexed": false,
          "internalType": "address",
          "name": "seller",
          "type": "address"
        },
        {
          "indexed": false,
          "internalType": "uint256",
          "name": "amount",
          "type": "uint256"
        }
      ],
      "name": "InvoiceMinted",
      "type": "event"
    },
    {
      "anonymous": false,
      "inputs": [
        {
          "indexed": true,
          "internalType": "uint256",
          "name": "tokenId",
          "type": "uint256"
        }
      ],
      "name": "InvoiceSettled",
      "type": "event"
    },
    {
      "anonymous": false,
      "inputs": [
        {
          "indexed": true,
          "internalType": "uint256",
          "name": "tokenId",
          "type": "uint256"
        },
        {
          "indexed": false,
          "internalType": "bytes32",
          "name": "verificationHash",
          "type": "bytes32"
        }
      ],
      "name": "InvoiceVerified",
      "type": "event"
    },
    {
      "anonymous": false,
      "inputs": [
        {
          "indexed": false,
          "internalType": "uint256",
          "name": "_tokenId",
          "type": "uint256"
        }
      ],
      "name": "MetadataUpdate",
      "type": "event"
    },
    {
      "anonymous": false,
      "inputs": [
        {
          "indexed": true,
          "internalType": "address",
          "name": "previousOwner",
          "type": "address"
        },
        {
          "indexed": true,
          "internalType": "address",
          "name": "newOwner",
          "type": "address"
        }
      ],
      "name": "OwnershipTransferred",
      "type": "event"
    },
    {
      "anonymous": false,
      "inputs": [
        {
          "indexed": true,
          "internalType": "address",
          "name": "from",
          "type": "address"
        },
        {
          "indexed": true,
          "internalType": "address",
          "name": "to",
          "type": "address"
        },
        {
          "indexed": true,
          "internalType": "uint256",
          "name": "tokenId",
          "type": "uint256"
        }
      ],
      "name": "Transfer",
      "type": "event"
    },
    {
      "inputs": [
        {
          "internalType": "address",
          "name": "to",
          "type": "address"
        },
        {
          "internalType": "uint256",
          "name": "tokenId",
          "type": "uint256"
        }
      ],
      "name": "approve",
      "outputs": [],
      "stateMutability": "nonpayable",
      "type": "function"
    },
    {
      "inputs": [
        {
          "internalType": "address",
          "name": "owner",
          "type": "address"
        }
      ],
      "name": "balanceOf",
      "outputs": [
        {
          "internalType": "uint256",
          "name": "",
          "type": "uint256"
        }
      ],
      "stateMutability": "view",
      "type": "function"
    },
    {
      "inputs": [
        {
          "internalType": "uint256",
          "name": "tokenId",
          "type": "uint256"
        }
      ],
      "name": "getApproved",
      "outputs": [
        {
          "internalType": "address",
          "name": "",
          "type": "address"
        }
      ],
      "stateMutability": "view",
      "type": "function"
    },
    {
      "inputs": [
        {
          "internalType": "uint256",
          "name": "tokenId",
          "type": "uint256"
        }
      ],
      "name": "getInvoice",
      "outputs": [
        {
          "components": [
            {
              "internalType": "string",
              "name": "invoiceId",
              "type": "string"
            },
            {
              "internalType": "uint256",
              "name": "amount",
              "type": "uint256"
            },
            {
              "internalType": "uint256",
              "name": "dueDate",
              "type": "uint256"
            },
            {
              "internalType": "address",
              "name": "seller",
              "type": "address"
            },
            {
              "internalType": "address",
              "name": "buyer",
              "type": "address"
            },
            {
              "internalType": "string",
              "name": "ipfsHash",
              "type": "string"
            },
            {
              "internalType": "bytes32",
              "name": "trustHash",
              "type": "bytes32"
            },
            {
              "internalType": "bytes32",
              "name": "verificationHash",
              "type": "bytes32"
            },
            {
              "internalType": "enum InvoiceNFT.InvoiceStatus",
              "name": "status",
              "type": "uint8"
            },
            {
              "internalType": "uint256",
              "name": "fundedAmount",
              "type": "uint256"
            },
            {
              "internalType": "address",
              "name": "investor",
              "type": "address"
            },
            {
              "internalType": "uint256",
              "name": "createdAt",
              "type": "uint256"
            }
          ],
          "internalType": "struct InvoiceNFT.Invoice",
          "name": "",
          "type": "tuple"
        }
      ],
      "stateMutability": "view",
      "type": "function"
    },
    {
      "inputs": [
        {
          "internalType": "string",
          "name": "invoiceId",
          "type": "string"
        }
      ],
      "name": "getInvoiceByInvoiceId",
      "outputs": [
        {
          "components": [
            {
              "internalType": "string",
              "name": "invoiceId",
              "type": "string"
            },
            {
              "internalType": "uint256",
              "name": "amount",
              "type": "uint256"
            },
            {
              "internalType": "uint256",
              "name": "dueDate",
              "type": "uint256"
            },
            {
              "internalType": "address",
              "name": "seller",
              "type": "address"
            },
            {
              "internalType": "address",
              "name": "buyer",
              "type": "address"
            },
            {
              "internalType": "string",
              "name": "ipfsHash",
              "type": "string"
            },
            {
              "internalType": "bytes32",
              "name": "trustHash",
              "type": "bytes32"
            },
            {
              "internalType": "bytes32",
              "name": "verificationHash",
              "type": "bytes32"
            },
            {
              "internalType": "enum InvoiceNFT.InvoiceStatus",
              "name": "status",
              "type": "uint8"
            },
            {
              "internalType": "uint256",
              "name": "fundedAmount",
              "type": "uint256"
            },
            {
              "internalType": "address",
              "name": "investor",
              "type": "address"
            },
            {
              "internalType": "uint256",
              "name": "createdAt",
              "type": "uint256"
            }
          ],
          "internalType": "struct InvoiceNFT.Invoice",
          "name": "",
          "type": "tuple"
        }
      ],
      "stateMutability": "view",
      "type": "function"
    },
    {
      "inputs": [
        {
          "internalType": "string",
          "name": "",
          "type": "string"
        }
      ],
      "name": "invoiceIdToTokenId",
      "outputs": [
        {
          "internalType": "uint256",
          "name": "",
          "type": "uint256"
        }
      ],
      "stateMutability": "view",
      "type": "function"
    },
    {
      "inputs": [
        {
          "internalType": "uint256",
          "name": "",
          "type": "uint256"
        }
      ],
      "name": "invoices",
      "outputs": [
        {
          "internalType": "string",
          "name": "invoiceId",
          "type": "string"
        },
        {
          "internalType": "uint256",
          "name": "amount",
          "type": "uint256"
        },
        {
          "internalType": "uint256",
          "name": "dueDate",
          "type": "uint256"
        },
        {
          "internalType": "address",
          "name": "seller",
          "type": "address"
        },
        {
          "internalType": "address",
          "name": "buyer",
          "type": "address"
        },
        {
          "internalType": "string",
          "name": "ipfsHash",
          "type": "string"
        },
        {
          "internalType": "bytes32",
          "name": "trustHash",
          "type": "bytes32"
        },
        {
          "internalType": "bytes32",
          "name": "verificationHash",
          "type": "bytes32"
        },
        {
          "internalType": "enum InvoiceNFT.InvoiceStatus",
          "name": "status",
          "type": "uint8"
        },
        {
          "internalType": "uint256",
          "name": "fundedAmount",
          "type": "uint256"
        },
        {
          "internalType": "address",
          "name": "investor",
          "type": "address"
        },
        {
          "internalType": "uint256",
          "name": "createdAt",
          "type": "uint256"
        }
      ],
      "stateMutability": "view",
      "type": "function"
    },
    {
      "inputs": [
        {
          "internalType": "address",
          "name": "owner",
          "type": "address"
        },
        {
          "internalType": "address",
          "name": "operator",
          "type": "address"
        }
      ],
      "name": "isApprovedForAll",
      "outputs": [
        {
          "internalType": "bool",
          "name": "",
          "type": "bool"
        }
      ],
      "stateMutability": "view",
      "type": "function"
    },
    {
      "inputs": [
        {
          "internalType": "uint256",
          "name": "tokenId",
          "type": "uint256"
        }
      ],
      "name": "listForFunding",
      "outputs": [],
      "stateMutability": "nonpayable",
      "type": "function"
    },
    {
      "inputs": [
        {
          "internalType": "uint256",
          "name": "tokenId",
          "type": "uint256"
        }
      ],
      "name": "markDefaulted",
      "outputs": [],
      "stateMutability": "nonpayable",
      "type": "function"
    },
    {
      "inputs": [
        {
          "internalType": "uint256",
          "name": "tokenId",
          "type": "uint256"
        },
        {
          "internalType": "address",
          "name": "investor",
          "type": "address"
        },
        {
          "internalType": "uint256",
          "name": "fundedAmount",
          "type": "uint256"
        }
      ],
      "name": "markFunded",
      "outputs": [],
      "stateMutability": "nonpayable",
      "type": "function"
    },
    {
      "inputs": [
        {
          "internalType": "uint256",
          "name": "tokenId",
          "type": "uint256"
        }
      ],
      "name": "markSettled",
      "outputs": [],
      "stateMutability": "nonpayable",
      "type": "function"
    },
    {
      "inputs": [
        {
          "internalType": "string",
          "name": "invoiceId",
          "type": "string"
        },
        {
          "internalType": "uint256",
          "name": "amount",
          "type": "uint256"
        },
        {
          "internalType": "uint256",
          "name": "dueDate",
          "type": "uint256"
        },
        {
          "internalType": "address",
          "name": "buyer",
          "type": "address"
        },
        {
          "internalType": "string",
          "name": "ipfsHash",
          "type": "string"
        },
        {
          "internalType": "bytes32",
          "name": "trustHash",
          "type": "bytes32"
        }
      ],
      "name": "mintInvoice",
      "outputs": [
        {
          "internalType": "uint256",
          "name": "",
          "type": "uint256"
        }
      ],
      "stateMutability": "nonpayable",
      "type": "function"
    },
    {
      "inputs": [],
      "name": "name",
      "outputs": [
        {
          "internalType": "string",
          "name": "",
          "type": "string"
        }
      ],
      "stateMutability": "view",
      "type": "function"
    },
    {
      "inputs": [],
      "name": "owner",
      "outputs": [
        {
          "internalType": "address",
          "name": "",
          "type": "address"
        }
      ],
      "stateMutability": "view",
      "type": "function"
    },
    {
      "inputs": [
        {
          "internalType": "uint256",
          "name": "tokenId",
          "type": "uint256"
        }
      ],
      "name": "ownerOf",
      "outputs": [
        {
          "internalType": "address",
          "name": "",
          "type": "address"
        }
      ],
      "stateMutability": "view",
      "type": "function"
    },
    {
      "inputs": [],
      "name": "renounceOwnership",
      "outputs": [],
      "stateMutability": "nonpayable",
      "type": "function"
    },
    {
      "inputs": [
        {
          "internalType": "address",
          "name": "from",
          "type": "address"
        },
        {
          "internalType": "address",
          "name": "to",
          "type": "address"
        },
        {
          "internalType": "uint256",
          "name": "tokenId",
          "type": "uint256"
        }
      ],
      "name": "safeTransferFrom",
      "outputs": [],
      "stateMutability": "nonpayable",
      "type": "function"
    },
    {
      "inputs": [
        {
          "internalType": "address",
          "name": "from",
          "type": "address"
        },
        {
          "internalType": "address",
          "name": "to",
          "type": "address"
        },
        {
          "internalType": "uint256",
          "name": "tokenId",
          "type": "uint256"
        },
        {
          "internalType": "bytes",
          "name": "data",
          "type": "bytes"
        }
      ],
      "name": "safeTransferFrom",
      "outputs": [],
      "stateMutability": "nonpayable",
      "type": "function"
    },
    {
      "inputs": [
        {
          "internalType": "address",
          "name": "operator",
          "type": "address"
        },
        {
          "internalType": "bool",
          "name": "approved",
          "type": "bool"
        }
      ],
      "name": "setApprovalForAll",
      "outputs": [],
      "stateMutability": "nonpayable",
      "type": "function"
    },
    {
      "inputs": [
        {
          "internalType": "bytes4",
          "name": "interfaceId",
          "type": "bytes4"
        }
      ],
      "name": "supportsInterface",
      "outputs": [
        {
          "internalType": "bool",
          "name": "",
          "type": "bool"
        }
      ],
      "stateMutability": "view",
      "type": "function"
    },
    {
      "inputs": [],
      "name": "symbol",
      "outputs": [
        {
          "internalType": "string",
          "name": "",
          "type": "string"
        }
      ],
      "stateMutability": "view",
      "type": "function"
    },
    {
      "inputs": [
        {
          "internalType": "uint256",
          "name": "tokenId",
          "type": "uint256"
        }
      ],
      "name": "tokenURI",
      "outputs": [
        {
          "internalType": "string",
          "name": "",
          "type": "string"
        }
      ],
      "stateMutability": "view",
      "type": "function"
    },
    {
      "inputs": [
        {
          "internalType": "address",
          "name": "from",
          "type": "address"
        },
        {
          "internalType": "address",
          "name": "to",
          "type": "address"
        },
        {
          "internalType": "uint256",
          "name": "tokenId",
          "type": "uint256"
        }
      ],
      "name": "transferFrom",
      "outputs": [],
      "stateMutability": "nonpayable",
      "type": "function"
    },
    {
      "inputs": [
        {
          "internalType": "address",
          "name": "newOwner",
          "type": "address"
        }
      ],
      "name": "transferOwnership",
      "outputs": [],
      "stateMutability": "nonpayable",
      "type": "function"
    },
    {
      "inputs": [
        {
          "internalType": "uint256",
          "name": "tokenId",
          "type": "uint256"
        },
        {
          "internalType": "bytes32",
          "name": "verificationHash",
          "type": "bytes32"
        }
      ],
      "name": "verifyInvoice",
      "outputs": [],
      "stateMutability": "nonpayable",
      "type": "function"
    }
  ],
  "bytecode": "0x60806040523480156200001157600080fd5b5033604051806040016040528060118152602001705472757374466c6f7720496e766f69636560781b815250604051806040016040528060058152602001642a2324a72b60d91b81525081600090816200006c9190620001b6565b5060016200007b8282620001b6565b5050506001600160a01b038116620000ad57604051631e4fbdf760e01b81526000600482015260240160405180910390fd5b620000b881620000bf565b5062000282565b600780546001600160a01b038381166001600160a01b0319831681179093556040519116919082907f8be0079c531659141344cd1fd0a4f28419497f9722a3daafe3b4186f6b6457e090600090a35050565b634e487b7160e01b600052604160045260246000fd5b600181811c908216806200013c57607f821691505b6020821081036200015d57634e487b7160e01b600052602260045260246000fd5b50919050565b601f821115620001b157600081815260208120601f850160051c810160208610156200018c5750805b601f850160051c820191505b81811015620001ad5782815560010162000198565b5050505b505050565b81516001600160401b03811115620001d257620001d262000111565b620001ea81620001e3845462000127565b8462000163565b602080601f831160018114620002225760008415620002095750858301515b600019600386901b1c1916600185901b178555620001ad565b600085815260208120601f198616915b82811015620002535788860151825594840194600190910190840162000232565b5085821015620002725787850151600019600388901b60f8161c191681555b5050505050600190811b01905550565b61262c80620002926000396000f3fe608060405234801561001057600080fd5b506004361061018e5760003560e01c80637e5634b9116100de578063a22cb46511610097578063c87b56dd11610071578063c87b56dd14610399578063daab5cda146103ac578063e985e9c5146103bf578063f2fde38b146103d257600080fd5b8063a22cb46514610360578063b88d4fde14610373578063c690367c1461038657600080fd5b80637e5634b9146102e35780638b0b4774146102f65780638da5cb5b146103095780638eb5117e1461031a57806393285bf81461032d57806395d89b411461035857600080fd5b80633a23cc0a1161014b5780636352211e116101255780636352211e1461029457806370a08231146102a7578063715018a6146102c857806373216450146102d057600080fd5b80633a23cc0a1461023657806342842e0e146102565780634e6d14051461026957600080fd5b806301ffc9a71461019357806306fdde03146101bb578063081812fc146101d0578063095ea7b3146101fb57806322cb1d151461021057806323b872dd14610223575b600080fd5b6101a66101a1366004611e2e565b6103e5565b60405190151581526020015b60405180910390f35b6101c36103f6565b6040516101b29190611e9b565b6101e36101de366004611eae565b610488565b6040516001600160a01b0390911681526020016101b2565b61020e610209366004611ee3565b6104b1565b005b61020e61021e366004611f0d565b6104c0565b61020e610231366004611f2f565b6105f6565b610249610244366004611eae565b610681565b6040516101b29190611fa3565b61020e610264366004611f2f565b610872565b61027c610277366004611eae565b610892565b6040516101b29c9b9a9998979695949392919061208d565b6101e36102a2366004611eae565b610a1b565b6102ba6102b5366004612120565b610a26565b6040519081526020016101b2565b61020e610a6e565b61020e6102de366004611eae565b610a82565b61020e6102f1366004611eae565b610b2f565b6102496103043660046121e7565b610bdc565b6007546001600160a01b03166101e3565b61020e610328366004611eae565b610e35565b6102ba61033b3660046121e7565b8051602081830181018051600a8252928201919093012091525481565b6101c3610f35565b61020e61036e36600461221c565b610f44565b61020e610381366004612258565b610f4f565b6102ba6103943660046122d4565b610f67565b6101c36103a7366004611eae565b6112ae565b61020e6103ba366004612364565b6112b9565b6101a66103cd366004612389565b6113a0565b61020e6103e0366004612120565b6113ce565b60006103f08261140c565b92915050565b606060008054610405906123bc565b80601f0160208091040260200160405190810160405280929190818152602001828054610431906123bc565b801561047e5780601f106104535761010080835404028352916020019161047e565b820191906000526020600020905b81548152906001019060200180831161046157829003601f168201915b5050505050905090565b600061049382611431565b506000828152600460205260409020546001600160a01b03166103f0565b6104bc82823361146a565b5050565b600082815260096020526040812090600882015460ff1660058111156104e8576104e8611f6b565b1461052b5760405162461bcd60e51b815260206004820152600e60248201526d496e76616c69642073746174757360901b60448201526064015b60405180910390fd5b60048101546001600160a01b031633148061055057506007546001600160a01b031633145b6105a65760405162461bcd60e51b815260206004820152602160248201527f4f6e6c79206275796572206f7220706c6174666f726d2063616e2076657269666044820152607960f81b6064820152608401610522565b6007810182905560088101805460ff1916600117905560405182815283907f3ca4f1ee22d2dd720b1e6eba9efd0a1741c8108a681871229c2e4aedc48b73cc9060200160405180910390a2505050565b6001600160a01b03821661062057604051633250574960e11b815260006004820152602401610522565b600061062d838333611477565b9050836001600160a01b0316816001600160a01b03161461067b576040516364283d7b60e01b81526001600160a01b0380861660048301526024820184905282166044820152606401610522565b50505050565b610689611dae565b60008281526009602052604090819020815161018081019092528054829082906106b2906123bc565b80601f01602080910402602001604051908101604052809291908181526020018280546106de906123bc565b801561072b5780601f106107005761010080835404028352916020019161072b565b820191906000526020600020905b81548152906001019060200180831161070e57829003601f168201915b5050509183525050600182015460208201526002820154604082015260038201546001600160a01b039081166060830152600483015416608082015260058201805460a09092019161077c906123bc565b80601f01602080910402602001604051908101604052809291908181526020018280546107a8906123bc565b80156107f55780601f106107ca576101008083540402835291602001916107f5565b820191906000526020600020905b8154815290600101906020018083116107d857829003601f168201915b50505091835250506006820154602082015260078201546040820152600882015460609091019060ff16600581111561083057610830611f6b565b600581111561084157610841611f6b565b815260098201546020820152600a8201546001600160a01b03166040820152600b9091015460609091015292915050565b61088d83838360405180602001604052806000815250610f4f565b505050565b6009602052600090815260409020805481906108ad906123bc565b80601f01602080910402602001604051908101604052809291908181526020018280546108d9906123bc565b80156109265780601f106108fb57610100808354040283529160200191610926565b820191906000526020600020905b81548152906001019060200180831161090957829003601f168201915b5050506001840154600285015460038601546004870154600588018054979894979396506001600160a01b03928316955091169291610964906123bc565b80601f0160208091040260200160405190810160405280929190818152602001828054610990906123bc565b80156109dd5780601f106109b2576101008083540402835291602001916109dd565b820191906000526020600020905b8154815290600101906020018083116109c057829003601f168201915b5050506006840154600785015460088601546009870154600a880154600b909801549697939692955060ff9091169350916001600160a01b0316908c565b60006103f082611431565b60006001600160a01b038216610a52576040516322718ad960e21b815260006004820152602401610522565b506001600160a01b031660009081526003602052604090205490565b610a76611570565b610a80600061159d565b565b610a8a611570565b60008181526009602052604090206003600882015460ff166005811115610ab357610ab3611f6b565b14610af15760405162461bcd60e51b815260206004820152600e60248201526d135d5cdd08189948199d5b99195960921b6044820152606401610522565b60088101805460ff1916600517905560405182907fdad3d8c24c5e0a13ffb0c0fa573014d3c4ba10367d5cba3549fa7c9ac18b93a490600090a25050565b610b37611570565b60008181526009602052604090206003600882015460ff166005811115610b6057610b60611f6b565b14610b9e5760405162461bcd60e51b815260206004820152600e60248201526d135d5cdd08189948199d5b99195960921b6044820152606401610522565b60088101805460ff1916600417905560405182907f48ab353d08175051cc8e1484433c8906b600e8dd13e3a07d1abdb6e9a3b65a4e90600090a25050565b610be4611dae565b6000600a83604051610bf691906123f6565b908152602001604051809103902054905080600003610c4b5760405162461bcd60e51b8152602060048201526011602482015270125b9d9bda58d9481b9bdd08199bdd5b99607a1b6044820152606401610522565b6000818152600960205260409081902081516101808101909252805482908290610c74906123bc565b80601f0160208091040260200160405190810160405280929190818152602001828054610ca0906123bc565b8015610ced5780601f10610cc257610100808354040283529160200191610ced565b820191906000526020600020905b815481529060010190602001808311610cd057829003601f168201915b5050509183525050600182015460208201526002820154604082015260038201546001600160a01b039081166060830152600483015416608082015260058201805460a090920191610d3e906123bc565b80601f0160208091040260200160405190810160405280929190818152602001828054610d6a906123bc565b8015610db75780601f10610d8c57610100808354040283529160200191610db7565b820191906000526020600020905b815481529060010190602001808311610d9a57829003601f168201915b50505091835250506006820154602082015260078201546040820152600882015460609091019060ff166005811115610df257610df2611f6b565b6005811115610e0357610e03611f6b565b815260098201546020820152600a8201546001600160a01b03166040820152600b909101546060909101529392505050565b60008181526009602052604090206001600882015460ff166005811115610e5e57610e5e611f6b565b14610ea45760405162461bcd60e51b8152602060048201526016602482015275135d5cdd081899481d995c9a599a595908199a5c9cdd60521b6044820152606401610522565b60038101546001600160a01b03163314610ef75760405162461bcd60e51b815260206004820152601460248201527313db9b1e481cd95b1b195c8818d85b881b1a5cdd60621b6044820152606401610522565b60088101805460ff1916600217905560405182907f2deaf5611db73b8e19a61ad501ec6810ef20237e48df3800a091b7f71f5b23b390600090a25050565b606060018054610405906123bc565b6104bc3383836115ef565b610f5a8484846105f6565b61067b338585858561168e565b600080875111610faf5760405162461bcd60e51b8152602060048201526013602482015272125b9d9bda58d9481251081c995c5d5a5c9959606a1b6044820152606401610522565b60008611610fff5760405162461bcd60e51b815260206004820152601760248201527f416d6f756e74206d75737420626520706f7369746976650000000000000000006044820152606401610522565b42851161104e5760405162461bcd60e51b815260206004820152601760248201527f4475652064617465206d757374206265206675747572650000000000000000006044820152606401610522565b600a8760405161105e91906123f6565b9081526020016040518091039020546000146110b55760405162461bcd60e51b8152602060048201526016602482015275496e766f69636520616c72656164792065786973747360501b6044820152606401610522565b600880549060006110c583612412565b90915550506008546110d733826117b9565b6110e181856117d3565b604080516101808101825289815260208082018a90528183018990523360608301526001600160a01b038816608083015260a0820187905260c08201869052600060e083018190526101008301819052610120830181905261014083018190524261016084015284815260099091529190912081518190611162908261247f565b50602082015160018201556040820151600282015560608201516003820180546001600160a01b039283166001600160a01b031991821617909155608084015160048401805491909316911617905560a082015160058201906111c5908261247f565b5060c0820151600682015560e0820151600782015561010082015160088201805460ff191660018360058111156111fe576111fe611f6b565b02179055506101208201516009820155610140820151600a80830180546001600160a01b0319166001600160a01b039093169290921790915561016090920151600b90910155604051829190611255908b906123f6565b908152602001604051809103902081905550807f0867c17fd27269a7493ba76a0dc907ffbac4ecac39ef8574a9075a53d927e8de89338a60405161129b9392919061253f565b60405180910390a2979650505050505050565b60606103f082611823565b6112c1611570565b60008381526009602052604090206002600882015460ff1660058111156112ea576112ea611f6b565b146113285760405162461bcd60e51b815260206004820152600e60248201526d135d5cdd081899481b1a5cdd195960921b6044820152606401610522565b60088101805460ff19166003179055600a810180546001600160a01b0385166001600160a01b0319909116811790915560098201839055604080519182526020820184905285917fa89eb6891733765ee1680954e6c13fbca417ad37abee83d50d8efdb86a6db523910160405180910390a250505050565b6001600160a01b03918216600090815260056020908152604080832093909416825291909152205460ff1690565b6113d6611570565b6001600160a01b03811661140057604051631e4fbdf760e01b815260006004820152602401610522565b6114098161159d565b50565b60006001600160e01b03198216632483248360e11b14806103f057506103f082611934565b6000818152600260205260408120546001600160a01b0316806103f057604051637e27328960e01b815260048101849052602401610522565b61088d8383836001611984565b6000828152600260205260408120546001600160a01b03908116908316156114a4576114a4818486611a8a565b6001600160a01b038116156114e2576114c1600085600080611984565b6001600160a01b038116600090815260036020526040902080546000190190555b6001600160a01b03851615611511576001600160a01b0385166000908152600360205260409020805460010190555b60008481526002602052604080822080546001600160a01b0319166001600160a01b0389811691821790925591518793918516917fddf252ad1be2c89b69c2b068fc378daa952ba7f163c4a11628f55a4df523b3ef91a4949350505050565b6007546001600160a01b03163314610a805760405163118cdaa760e01b8152336004820152602401610522565b600780546001600160a01b038381166001600160a01b0319831681179093556040519116919082907f8be0079c531659141344cd1fd0a4f28419497f9722a3daafe3b4186f6b6457e090600090a35050565b6001600160a01b03821661162157604051630b61174360e31b81526001600160a01b0383166004820152602401610522565b6001600160a01b03838116600081815260056020908152604080832094871680845294825291829020805460ff191686151590811790915591519182527f17307eab39ab6107e8899845ad3d59bd9653f200f220920489ca2b5937696c31910160405180910390a3505050565b6001600160a01b0383163b156117b257604051630a85bd0160e11b81526001600160a01b0384169063150b7a02906116d090889088908790879060040161256d565b6020604051808303816000875af192505050801561170b575060408051601f3d908101601f19168201909252611708918101906125aa565b60015b611774573d808015611739576040519150601f19603f3d011682016040523d82523d6000602084013e61173e565b606091505b50805160000361176c57604051633250574960e11b81526001600160a01b0385166004820152602401610522565b805160208201fd5b6001600160e01b03198116630a85bd0160e11b146117b057604051633250574960e11b81526001600160a01b0385166004820152602401610522565b505b5050505050565b6104bc828260405180602001604052806000815250611aee565b60008281526006602052604090206117eb828261247f565b506040518281527ff8e1a15aba9398e019f0b49df1a4fde98ee17ae345cb5f6b5e2c27f5033e8ce79060200160405180910390a15050565b606061182e82611431565b5060008281526006602052604081208054611848906123bc565b80601f0160208091040260200160405190810160405280929190818152602001828054611874906123bc565b80156118c15780601f10611896576101008083540402835291602001916118c1565b820191906000526020600020905b8154815290600101906020018083116118a457829003601f168201915b5050505050905060006118df60408051602081019091526000815290565b905080516000036118f1575092915050565b81511561192357808260405160200161190b9291906125c7565b60405160208183030381529060405292505050919050565b61192c84611b06565b949350505050565b60006001600160e01b031982166380ac58cd60e01b148061196557506001600160e01b03198216635b5e139f60e01b145b806103f057506301ffc9a760e01b6001600160e01b03198316146103f0565b808061199857506001600160a01b03821615155b15611a5a5760006119a884611431565b90506001600160a01b038316158015906119d45750826001600160a01b0316816001600160a01b031614155b80156119e757506119e581846113a0565b155b15611a105760405163a9fbf51f60e01b81526001600160a01b0384166004820152602401610522565b8115611a585783856001600160a01b0316826001600160a01b03167f8c5be1e5ebec7d5bd14f71427d1e84f3dd0314c0f7b2291e5b200ac8c7c3b92560405160405180910390a45b505b5050600090815260046020526040902080546001600160a01b0319166001600160a01b0392909216919091179055565b611a95838383611b7b565b61088d576001600160a01b038316611ac357604051637e27328960e01b815260048101829052602401610522565b60405163177e802f60e01b81526001600160a01b038316600482015260248101829052604401610522565b611af88383611bde565b61088d33600085858561168e565b6060611b1182611431565b506000611b2960408051602081019091526000815290565b90506000815111611b495760405180602001604052806000815250611b74565b80611b5384611c43565b604051602001611b649291906125c7565b6040516020818303038152906040525b9392505050565b60006001600160a01b0383161580159061192c5750826001600160a01b0316846001600160a01b03161480611bb55750611bb584846113a0565b8061192c5750506000908152600460205260409020546001600160a01b03908116911614919050565b6001600160a01b038216611c0857604051633250574960e11b815260006004820152602401610522565b6000611c1683836000611477565b90506001600160a01b0381161561088d576040516339e3563760e11b815260006004820152602401610522565b60606000611c5083611cd6565b600101905060008167ffffffffffffffff811115611c7057611c7061213b565b6040519080825280601f01601f191660200182016040528015611c9a576020820181803683370190505b5090508181016020015b600019016f181899199a1a9b1b9c1cb0b131b232b360811b600a86061a8153600a8504945084611ca457509392505050565b60008072184f03e93ff9f4daa797ed6e38ed64bf6a1f0160401b8310611d155772184f03e93ff9f4daa797ed6e38ed64bf6a1f0160401b830492506040015b6d04ee2d6d415b85acef81000000008310611d41576d04ee2d6d415b85acef8100000000830492506020015b662386f26fc100008310611d5f57662386f26fc10000830492506010015b6305f5e1008310611d77576305f5e100830492506008015b6127108310611d8b57612710830492506004015b60648310611d9d576064830492506002015b600a83106103f05760010192915050565b604080516101808101825260608082526000602083018190529282018390528082018390526080820183905260a082015260c0810182905260e081018290529061010082019081526020016000815260200160006001600160a01b03168152602001600081525090565b6001600160e01b03198116811461140957600080fd5b600060208284031215611e4057600080fd5b8135611b7481611e18565b60005b83811015611e66578181015183820152602001611e4e565b50506000910152565b60008151808452611e87816020860160208601611e4b565b601f01601f19169290920160200192915050565b602081526000611b746020830184611e6f565b600060208284031215611ec057600080fd5b5035919050565b80356001600160a01b0381168114611ede57600080fd5b919050565b60008060408385031215611ef657600080fd5b611eff83611ec7565b946020939093013593505050565b60008060408385031215611f2057600080fd5b50508035926020909101359150565b600080600060608486031215611f4457600080fd5b611f4d84611ec7565b9250611f5b60208501611ec7565b9150604084013590509250925092565b634e487b7160e01b600052602160045260246000fd5b60068110611f9f57634e487b7160e01b600052602160045260246000fd5b9052565b6020815260008251610180806020850152611fc26101a0850183611e6f565b915060208501516040850152604085015160608501526060850151611ff260808601826001600160a01b03169052565b5060808501516001600160a01b03811660a08601525060a0850151848303601f190160c08601526120238382611e6f565b92505060c085015160e085015260e085015161010081818701528087015191505061012061205381870183611f81565b86015161014086810191909152860151905061016061207c818701836001600160a01b03169052565b959095015193019290925250919050565b610180815260006120a261018083018f611e6f565b602083018e9052604083018d90526001600160a01b038c811660608501528b8116608085015283820360a08501526120da828c611e6f565b92508960c08501528860e08501526120f6610100850189611f81565b866101208501528086166101408501525050826101608301529d9c50505050505050505050505050565b60006020828403121561213257600080fd5b611b7482611ec7565b634e487b7160e01b600052604160045260246000fd5b600067ffffffffffffffff8084111561216c5761216c61213b565b604051601f8501601f19908116603f011681019082821181831017156121945761219461213b565b816040528093508581528686860111156121ad57600080fd5b858560208301376000602087830101525050509392505050565b600082601f8301126121d857600080fd5b611b7483833560208501612151565b6000602082840312156121f957600080fd5b813567ffffffffffffffff81111561221057600080fd5b61192c848285016121c7565b6000806040838503121561222f57600080fd5b61223883611ec7565b91506020830135801515811461224d57600080fd5b809150509250929050565b6000806000806080858703121561226e57600080fd5b61227785611ec7565b935061228560208601611ec7565b925060408501359150606085013567ffffffffffffffff8111156122a857600080fd5b8501601f810187136122b957600080fd5b6122c887823560208401612151565b91505092959194509250565b60008060008060008060c087890312156122ed57600080fd5b863567ffffffffffffffff8082111561230557600080fd5b6123118a838b016121c7565b9750602089013596506040890135955061232d60608a01611ec7565b9450608089013591508082111561234357600080fd5b5061235089828a016121c7565b92505060a087013590509295509295509295565b60008060006060848603121561237957600080fd5b83359250611f5b60208501611ec7565b6000806040838503121561239c57600080fd5b6123a583611ec7565b91506123b360208401611ec7565b90509250929050565b600181811c908216806123d057607f821691505b6020821081036123f057634e487b7160e01b600052602260045260246000fd5b50919050565b60008251612408818460208701611e4b565b9190910192915050565b60006001820161243257634e487b7160e01b600052601160045260246000fd5b5060010190565b601f82111561088d57600081815260208120601f850160051c810160208610156124605750805b601f850160051c820191505b818110156117b05782815560010161246c565b815167ffffffffffffffff8111156124995761249961213b565b6124ad816124a784546123bc565b84612439565b602080601f8311600181146124e257600084156124ca5750858301515b600019600386901b1c1916600185901b1785556117b0565b600085815260208120601f198616915b82811015612511578886015182559484019460019091019084016124f2565b508582101561252f5787850151600019600388901b60f8161c191681555b5050505050600190811b01905550565b6060815260006125526060830186611e6f565b6001600160a01b039490941660208301525060400152919050565b6001600160a01b03858116825284166020820152604081018390526080606082018190526000906125a090830184611e6f565b9695505050505050565b6000602082840312156125bc57600080fd5b8151611b7481611e18565b600083516125d9818460208801611e4b565b8351908301906125ed818360208801611e4b565b0194935050505056fea2646970667358221220d9cec954a86075bdabebbf5b088c584e79994e90f0614b148aeee41db47656a664736f6c63430008140033",
  "linkReferences": {},
  "deployedLinkReferences": {}
}