{"contracts/TrustRegistry.sol":{"TrustRegistry":{"abi":[{"inputs":[],"stateMutability":"nonpayable","type":"constructor"},{"inputs":[{"internalType":"address","name":"owner","type":"address"}],"name":"OwnableInvalidOwner","type":"error"},{"inputs":[{"internalType":"address","name":"account","type":"address"}],"name":"OwnableUnauthorizedAccount","type":"error"},{"anonymous":false,"inputs":[{"indexed":true,"internalType":"address","name":"previousOwner","type":"address"},{"indexed":true,"internalType":"address","name":"newOwner","type":"address"}],"name":"OwnershipTransferred","type":"event"},{"anonymous":false,"inputs":[{"indexed":true,"internalType":"string","name":"invoiceId","type":"string"},{"indexed":false,"internalType":"bytes32","name":"trustHash","type":"bytes32"},{"indexed":false,"internalType":"uint256","name":"timestamp","type":"uint256"}],"name":"TrustHashCommitted","type":"event"},{"anonymous":false,"inputs":[{"indexed":true,"internalType":"string","name":"invoiceId","type":"string"},{"indexed":false,"internalType":"bytes32","name":"verificationHash","type":"bytes32"},{"indexed":false,"internalType":"enum TrustRegistry.VerificationType","name":"verificationType","type":"uint8"}],"name":"VerificationCommitted","type":"event"},{"inputs":[{"internalType":"string","name":"invoiceId","type":"string"},{"internalType":"bytes32","name":"trustHash","type":"bytes32"}],"name":"commitTrustHash","outputs":[],"stateMutability":"nonpayable","type":"function"},{"inputs":[{"internalType":"string","name":"invoiceId","type":"string"},{"internalType":"bytes32","name":"signatureHash","type":"bytes32"}],"name":"commitWalletVerification","outputs":[],"stateMutability":"nonpayable","type":"function"},{"inputs":[{"internalType":"string","name":"invoiceId","type":"string"},{"internalType":"bytes32","name":"confirmationHash","type":"bytes32"}],"name":"commitWebVerification","outputs":[],"stateMutability":"nonpayable","type":"function"},{"inputs":[{"internalType":"string","name":"invoiceId","type":"string"}],"name":"getTrustHash","outputs":[{"internalType":"bytes32","name":"","type":"bytes32"}],"stateMutability":"view","type":"function"},{"inputs":[{"internalType":"string","name":"invoiceId","type":"string"}],"name":"getVerification","outputs":[{"internalType":"bytes32","name":"","type":"bytes32"},{"internalType":"enum TrustRegistry.VerificationType","name":"","type":"uint8"}],"stateMutability":"view","type":"function"},{"inputs":[{"internalType":"string","name":"invoiceId","type":"string"}],"name":"isVerified","outputs":[{"internalType":"bool","name":"","type":"bool"}],"stateMutability":"view","type":"function"},{"inputs":[],"name":"owner","outputs":[{"internalType":"address","name":"","type":"address"}],"stateMutability":"view","type":"function"},{"inputs":[],"name":"renounceOwnership","outputs":[],"stateMutability":"nonpayable","type":"function"},{"inputs":[{"internalType":"address","name":"newOwner","type":"address"}],"name":"transferOwnership","outputs":[],"stateMutability":"nonpayable","type":"function"},{"inputs":[{"internalType":"string","name":"","type":"string"}],"name":"trustHashes","outputs":[{"internalType":"bytes32","name":"","type":"bytes32"}],"stateMutability":"view","type":"function"},{"inputs":[{"internalType":"string","name":"","type":"string"}],"name":"verificationHashes","outputs":[{"internalType":"bytes32","name":"","type":"bytes32"}],"stateMutability":"view","type":"function"},{"inputs":[{"internalType":"string","name":"","type":"string"}],"name":"verificationTypes","outputs":[{"internalType":"enum TrustRegistry.VerificationType","name":"","type":"uint8"}],"stateMutability":"view","type":"function"}],"evm":{"bytecode":{"linkReferences":{},"object":"608060405234801561001057600080fd5b50338061003757604051631e4fbdf760e01b81526000600482015260240160405180910390fd5b61004081610046565b50610096565b600080546001600160a01b038381166001600160a01b0319831681178455604051919092169283917f8be0079c531659141344cd1fd0a4f28419497f9722a3daafe3b4186f6b6457e09190a35050565b6108c8806100a56000396000f3fe608060405234801561001057600080fd5b50600436106100b45760003560e01c80637f31cfa9116100715780637f31cfa91461015d5780638da5cb5b14610198578063a3261963146101b3578063b05b3917146101c6578063d0a028d1146101f1578063f2fde38b1461021257600080fd5b806302b85fa0146100b95780631a22e681146100ce5780631e7e1dc6146100e1578063210f48af1461011f578063234c76d514610132578063715018a614610155575b600080fd5b6100cc6100c7366004610751565b610225565b005b6100cc6100dc366004610751565b610315565b61010c6100ef366004610796565b805160208183018101805160018252928201919093012091525481565b6040519081526020015b60405180910390f35b61010c61012d366004610796565b61042b565b610145610140366004610796565b610453565b6040519015158152602001610116565b6100cc610481565b61018b61016b366004610796565b805160208183018101805160038252928201919093012091525460ff1681565b604051610116919061080b565b6000546040516001600160a01b039091168152602001610116565b6100cc6101c1366004610751565b610495565b61010c6101d4366004610796565b805160208183018101805160028252928201919093012091525481565b6102046101ff366004610796565b6105a3565b60405161011692919061081f565b6100cc61022036600461083a565b6105f3565b61022d610631565b6000801b6001836040516102419190610863565b908152602001604051809103902054146102a25760405162461bcd60e51b815260206004820152601c60248201527f5472757374206861736820616c726561647920636f6d6d69747465640000000060448201526064015b60405180910390fd5b806001836040516102b39190610863565b908152604051908190036020018120919091556102d1908390610863565b60408051918290038220838352426020840152917fa18c7c9b7a028b4d3b5a2d4a9411d3a7b85d8b9363e67b60ff37301d4cc0404691015b60405180910390a25050565b61031d610631565b6000801b6002836040516103319190610863565b908152602001604051809103902054146103805760405162461bcd60e51b815260206004820152601060248201526f105b1c9958591e481d995c9a599a595960821b6044820152606401610299565b806002836040516103919190610863565b90815260200160405180910390208190555060026003836040516103b59190610863565b908152604051908190036020019020805460ff191660018360028111156103de576103de6107d3565b0217905550816040516103f19190610863565b60405180910390207f97262b24baef48f505be367ecb981993fbc99d26b3a33cff4bb91fe82285ea6982600260405161030992919061081f565b600060018260405161043d9190610863565b9081526020016040518091039020549050919050565b60008060001b6002836040516104699190610863565b90815260200160405180910390205414159050919050565b610489610631565b610493600061065e565b565b6000801b6002836040516104a99190610863565b908152602001604051809103902054146104f85760405162461bcd60e51b815260206004820152601060248201526f105b1c9958591e481d995c9a599a595960821b6044820152606401610299565b806002836040516105099190610863565b908152602001604051809103902081905550600160038360405161052d9190610863565b908152604051908190036020019020805460ff19166001836002811115610556576105566107d3565b0217905550816040516105699190610863565b60405180910390207f97262b24baef48f505be367ecb981993fbc99d26b3a33cff4bb91fe82285ea6982600160405161030992919061081f565b6000806002836040516105b69190610863565b9081526020016040518091039020546003846040516105d59190610863565b90815260405190819003602001902054909460ff9091169350915050565b6105fb610631565b6001600160a01b03811661062557604051631e4fbdf760e01b815260006004820152602401610299565b61062e8161065e565b50565b6000546001600160a01b031633146104935760405163118cdaa760e01b8152336004820152602401610299565b600080546001600160a01b038381166001600160a01b0319831681178455604051919092169283917f8be0079c531659141344cd1fd0a4f28419497f9722a3daafe3b4186f6b6457e09190a35050565b634e487b7160e01b600052604160045260246000fd5b600082601f8301126106d557600080fd5b813567ffffffffffffffff808211156106f0576106f06106ae565b604051601f8301601f19908116603f01168101908282118183101715610718576107186106ae565b8160405283815286602085880101111561073157600080fd5b836020870160208301376000602085830101528094505050505092915050565b6000806040838503121561076457600080fd5b823567ffffffffffffffff81111561077b57600080fd5b610787858286016106c4565b95602094909401359450505050565b6000602082840312156107a857600080fd5b813567ffffffffffffffff8111156107bf57600080fd5b6107cb848285016106c4565b949350505050565b634e487b7160e01b600052602160045260246000fd5b6003811061080757634e487b7160e01b600052602160045260246000fd5b9052565b6020810161081982846107e9565b92915050565b8281526040810161083360208301846107e9565b9392505050565b60006020828403121561084c57600080fd5b81356001600160a01b038116811461083357600080fd5b6000825160005b81811015610884576020818601810151858301520161086a565b50600092019182525091905056fea2646970667358221220cca58a0f479f17cd3807dc5984ca20c058b7ab9d3fb041c4a65e8871485f82c164736f6c63430008140033","opcodes":"PUSH1 0x80 PUSH1 0x40 MSTORE CALLVALUE DUP1 ISZERO PUSH2 0x10 JUMPI PUSH1 0x0 DUP1 REVERT JUMPDEST POP CALLER DUP1 PUSH2 0x37 JUMPI PUSH1 0x40 MLOAD PUSH4 0x1E4FBDF7 PUSH1 0xE0 SHL DUP2 MSTORE PUSH1 0x0 PUSH1 0x4 DUP3 ADD MSTORE PUSH1 0x24 ADD PUSH1 0x40 MLOAD DUP1 SWAP2 SUB SWAP1 REVERT JUMPDEST PUSH2 0x40 DUP2 PUSH2 0x46 JUMP JUMPDEST POP PUSH2 0x96 JUMP JUMPDEST PUSH1 0x0 DUP1 SLOAD PUSH1 0x1 PUSH1 0x1 PUSH1 0xA0 SHL SUB DUP4 DUP2 AND PUSH1 0x1 PUSH1 0x1 PUSH1 0xA0 SHL SUB NOT DUP4 AND DUP2 OR DUP5 SSTORE PUSH1 0x40 MLOAD SWAP2 SWAP1 SWAP3 AND SWAP3 DUP4 SWAP2 PUSH32 0x8BE0079C531659141344CD1FD0A4F28419497F9722A3DAAFE3B4186F6B6457E0 SWAP2 SWAP1 LOG3 POP POP JUMP JUMPDEST PUSH2 0x8C8 DUP1 PUSH2 0xA5 PUSH1 0x0 CODECOPY PUSH1 0x0 RETURN INVALID PUSH1 0x80 PUSH1 0x40 MSTORE CALLVALUE DUP1 ISZERO PUSH2 0x10 JUMPI PUSH1 0x0 DUP1 REVERT JUMPDEST POP PUSH1 0x4 CALLDATASIZE LT PUSH2 0xB4 JUMPI PUSH1 0x0 CALLDATALOAD PUSH1 0xE0 SHR DUP1 PUSH4 0x7F31CFA9 GT PUSH2 0x71 JUMPI DUP1 PUSH4 0x7F31CFA9 EQ PUSH2 0x15D JUMPI DUP1 PUSH4 0x8DA5CB5B EQ PUSH2 0x198 JUMPI DUP1 PUSH4 0xA3261963 EQ PUSH2 0x1B3 JUMPI DUP1 PUSH4 0xB05B3917 EQ PUSH2 0x1C6 JUMPI DUP1 PUSH4 0xD0A028D1 EQ PUSH2 0x1F1 JUMPI DUP1 PUSH4 0xF2FDE38B EQ PUSH2 0x212 JUMPI PUSH1 0x0 DUP1 REVERT JUMPDEST DUP1 PUSH4 0x2B85FA0 EQ PUSH2 0xB9 JUMPI DUP1 PUSH4 0x1A22E681 EQ PUSH2 0xCE JUMPI DUP1 PUSH4 0x1E7E1DC6 EQ PUSH2 0xE1 JUMPI DUP1 PUSH4 0x210F48AF EQ PUSH2 0x11F JUMPI DUP1 PUSH4 0x234C76D5 EQ PUSH2 0x132 JUMPI DUP1 PUSH4 0x715018A6 EQ PUSH2 0x155 JUMPI JUMPDEST PUSH1 0x0 DUP1 REVERT JUMPDEST PUSH2 0xCC PUSH2 0xC7 CALLDATASIZE PUSH1 0x4 PUSH2 0x751 JUMP JUMPDEST PUSH2 0x225 JUMP JUMPDEST STOP JUMPDEST PUSH2 0xCC PUSH2 0xDC CALLDATASIZE PUSH1 0x4 PUSH2 0x751 JUMP JUMPDEST PUSH2 0x315 JUMP JUMPDEST PUSH2 0x10C PUSH2 0xEF CALLDATASIZE PUSH1 0x4 PUSH2 0x796 JUMP JUMPDEST DUP1 MLOAD PUSH1 0x20 DUP2 DUP4 ADD DUP2 ADD DUP1 MLOAD PUSH1 0x1 DUP3 MSTORE SWAP3 DUP3 ADD SWAP2 SWAP1 SWAP4 ADD KECCAK256 SWAP2 MSTORE SLOAD DUP2 JUMP JUMPDEST PUSH1 0x40 MLOAD SWAP1 DUP2 MSTORE PUSH1 0x20 ADD JUMPDEST PUSH1 0x40 MLOAD DUP1 SWAP2 SUB SWAP1 RETURN JUMPDEST PUSH2 0x10C PUSH2 0x12D CALLDATASIZE PUSH1 0x4 PUSH2 0x796 JUMP JUMPDEST PUSH2 0x42B JUMP JUMPDEST PUSH2 0x145 PUSH2 0x140 CALLDATASIZE PUSH1 0x4 PUSH2 0x796 JUMP JUMPDEST PUSH2 0x453 JUMP JUMPDEST PUSH1 0x40 MLOAD SWAP1 ISZERO ISZERO DUP2 MSTORE PUSH1 0x20 ADD PUSH2 0x116 JUMP JUMPDEST PUSH2 0xCC PUSH2 0x481 JUMP JUMPDEST PUSH2 0x18B PUSH2 0x16B CALLDATASIZE PUSH1 0x4 PUSH2 0x796 JUMP JUMPDEST DUP1 MLOAD PUSH1 0x20 DUP2 DUP4 ADD DUP2 ADD DUP1 MLOAD PUSH1 0x3 DUP3 MSTORE SWAP3 DUP3 ADD SWAP2 SWAP1 SWAP4 ADD KECCAK256 SWAP2 MSTORE SLOAD PUSH1 0xFF AND DUP2 JUMP JUMPDEST PUSH1 0x40 MLOAD PUSH2 0x116 SWAP2 SWAP1 PUSH2 0x80B JUMP JUMPDEST PUSH1 0x0 SLOAD PUSH1 0x40 MLOAD PUSH1 0x1 PUSH1 0x1 PUSH1 0xA0 SHL SUB SWAP1 SWAP2 AND DUP2 MSTORE PUSH1 0x20 ADD PUSH2 0x116 JUMP JUMPDEST PUSH2 0xCC PUSH2 0x1C1 CALLDATASIZE PUSH1 0x4 PUSH2 0x751 JUMP JUMPDEST PUSH2 0x495 JUMP JUMPDEST PUSH2 0x10C PUSH2 0x1D4 CALLDATASIZE PUSH1 0x4 PUSH2 0x796 JUMP JUMPDEST DUP1 MLOAD PUSH1 0x20 DUP2 DUP4 ADD DUP2 ADD DUP1 MLOAD PUSH1 0x2 DUP3 MSTORE SWAP3 DUP3 ADD SWAP2 SWAP1 SWAP4 ADD KECCAK256 SWAP2 MSTORE SLOAD DUP2 JUMP JUMPDEST PUSH2 0x204 PUSH2 0x1FF CALLDATASIZE PUSH1 0x4 PUSH2 0x796 JUMP JUMPDEST PUSH2 0x5A3 JUMP JUMPDEST PUSH1 0x40 MLOAD PUSH2 0x116 SWAP3 SWAP2 SWAP1 PUSH2 0x81F JUMP JUMPDEST PUSH2 0xCC PUSH2 0x220 CALLDATASIZE PUSH1 0x4 PUSH2 0x83A JUMP JUMPDEST PUSH2 0x5F3 JUMP JUMPDEST PUSH2 0x22D PUSH2 0x631 JUMP JUMPDEST PUSH1 0x0 DUP1 SHL PUSH1 0x1 DUP4 PUSH1 0x40 MLOAD PUSH2 0x241 SWAP2 SWAP1 PUSH2 0x863 JUMP JUMPDEST SWAP1 DUP2 MSTORE PUSH1 0x20 ADD PUSH1 0x40 MLOAD DUP1 SWAP2 SUB SWAP1 KECCAK256 SLOAD EQ PUSH2 0x2A2 JUMPI PUSH1 0x40 MLOAD PUSH3 0x461BCD PUSH1 0xE5 SHL DUP2 MSTORE PUSH1 0x20 PUSH1 0x4 DUP3 ADD MSTORE PUSH1 0x1C PUSH1 0x24 DUP3 ADD MSTORE PUSH32 0x5472757374206861736820616C726561647920636F6D6D697474656400000000 PUSH1 0x44 DUP3 ADD MSTORE PUSH1 0x64 ADD JUMPDEST PUSH1 0x40 MLOAD DUP1 SWAP2 SUB SWAP1 REVERT JUMPDEST DUP1 PUSH1 0x1 DUP4 PUSH1 0x40 MLOAD PUSH2 0x2B3 SWAP2 SWAP1 PUSH2 0x863 JUMP JUMPDEST SWAP1 DUP2 MSTORE PUSH1 0x40 MLOAD SWAP1 DUP2 SWAP1 SUB PUSH1 0x20 ADD DUP2 KECCAK256 SWAP2 SWAP1 SWAP2 SSTORE PUSH2 0x2D1 SWAP1 DUP4 SWAP1 PUSH2 0x863 JUMP JUMPDEST PUSH1 0x40 DUP1 MLOAD SWAP2 DUP3 SWAP1 SUB DUP3 KECCAK256 DUP4 DUP4 MSTORE TIMESTAMP PUSH1 0x20 DUP5 ADD MSTORE SWAP2 PUSH32 0xA18C7C9B7A028B4D3B5A2D4A9411D3A7B85D8B9363E67B60FF37301D4CC04046 SWAP2 ADD JUMPDEST PUSH1 0x40 MLOAD DUP1 SWAP2 SUB SWAP1 LOG2 POP POP JUMP JUMPDEST PUSH2 0x31D PUSH2 0x631 JUMP JUMPDEST PUSH1 0x0 DUP1 SHL PUSH1 0x2 DUP4 PUSH1 0x40 MLOAD PUSH2 0x331 SWAP2 SWAP1 PUSH2 0x863 JUMP JUMPDEST SWAP1 DUP2 MSTORE PUSH1 0x20 ADD PUSH1 0x40 MLOAD DUP1 SWAP2 SUB SWAP1 KECCAK256 SLOAD EQ PUSH2 0x380 JUMPI PUSH1 0x40 MLOAD PUSH3 0x461BCD PUSH1 0xE5 SHL DUP2 MSTORE PUSH1 0x20 PUSH1 0x4 DUP3 ADD MSTORE PUSH1 0x10 PUSH1 0x24 DUP3 ADD MSTORE PUSH16 0x105B1C9958591E481D995C9A599A5959 PUSH1 0x82 SHL PUSH1 0x44 DUP3 ADD MSTORE PUSH1 0x64 ADD PUSH2 0x299 JUMP JUMPDEST DUP1 PUSH1 0x2 DUP4 PUSH1 0x40 MLOAD PUSH2 0x391 SWAP2 SWAP1 PUSH2 0x863 JUMP JUMPDEST SWAP1 DUP2 MSTORE PUSH1 0x20 ADD PUSH1 0x40 MLOAD DUP1 SWAP2 SUB SWAP1 KECCAK256 DUP2 SWAP1 SSTORE POP PUSH1 0x2 PUSH1 0x3 DUP4 PUSH1 0x40 MLOAD PUSH2 0x3B5 SWAP2 SWAP1 PUSH2 0x863 JUMP JUMPDEST SWAP1 DUP2 MSTORE PUSH1 0x40 MLOAD SWAP1 DUP2 SWAP1 SUB PUSH1 0x20 ADD SWAP1 KECCAK256 DUP1 SLOAD PUSH1 0xFF NOT AND PUSH1 0x1 DUP4 PUSH1 0x2 DUP2 GT ISZERO PUSH2 0x3DE JUMPI PUSH2 0x3DE PUSH2 0x7D3 JUMP JUMPDEST MUL OR SWAP1 SSTORE POP DUP2 PUSH1 0x40 MLOAD PUSH2 0x3F1 SWAP2 SWAP1 PUSH2 0x863 JUMP JUMPDEST PUSH1 0x40 MLOAD DUP1 SWAP2 SUB SWAP1 KECCAK256 PUSH32 0x97262B24BAEF48F505BE367ECB981993FBC99D26B3A33CFF4BB91FE82285EA69 DUP3 PUSH1 0x2 PUSH1 0x40 MLOAD PUSH2 0x309 SWAP3 SWAP2 SWAP1 PUSH2 0x81F JUMP JUMPDEST PUSH1 0x0 PUSH1 0x1 DUP3 PUSH1 0x40 MLOAD PUSH2 0x43D SWAP2 SWAP1 PUSH2 0x863 JUMP JUMPDEST SWAP1 DUP2 MSTORE PUSH1 0x20 ADD PUSH1 0x40 MLOAD DUP1 SWAP2 SUB SWAP1 KECCAK256 SLOAD SWAP1 POP SWAP2 SWAP1 POP JUMP JUMPDEST PUSH1 0x0 DUP1 PUSH1 0x0 SHL PUSH1 0x2 DUP4 PUSH1 0x40 MLOAD PUSH2 0x469 SWAP2 SWAP1 PUSH2 0x863 JUMP JUMPDEST SWAP1 DUP2 MSTORE PUSH1 0x20 ADD PUSH1 0x40 MLOAD DUP1 SWAP2 SUB SWAP1 KECCAK256 SLOAD EQ ISZERO SWAP1 POP SWAP2 SWAP1 POP JUMP JUMPDEST PUSH2 0x489 PUSH2 0x631 JUMP JUMPDEST PUSH2 0x493 PUSH1 0x0 PUSH2 0x65E JUMP JUMPDEST JUMP JUMPDEST PUSH1 0x0 DUP1 SHL PUSH1 0x2 DUP4 PUSH1 0x40 MLOAD PUSH2 0x4A9 SWAP2 SWAP1 PUSH2 0x863 JUMP JUMPDEST SWAP1 DUP2 MSTORE PUSH1 0x20 ADD PUSH1 0x40 MLOAD DUP1 SWAP2 SUB SWAP1 KECCAK256 SLOAD EQ PUSH2 0x4F8 JUMPI PUSH1 0x40 MLOAD PUSH3 0x461BCD PUSH1 0xE5 SHL DUP2 MSTORE PUSH1 0x20 PUSH1 0x4 DUP3 ADD MSTORE PUSH1 0x10 PUSH1 0x24 DUP3 ADD MSTORE PUSH16 0x105B1C9958591E481D995C9A599A5959 PUSH1 0x82 SHL PUSH1 0x44 DUP3 ADD MSTORE PUSH1 0x64 ADD PUSH2 0x299 JUMP JUMPDEST DUP1 PUSH1 0x2 DUP4 PUSH1 0x40 MLOAD PUSH2 0x509 SWAP2 SWAP1 PUSH2 0x863 JUMP JUMPDEST SWAP1 DUP2 MSTORE PUSH1 0x20 ADD PUSH1 0x40 MLOAD DUP1 SWAP2 SUB SWAP1 KECCAK256 DUP2 SWAP1 SSTORE POP PUSH1 0x1 PUSH1 0x3 DUP4 PUSH1 0x40 MLOAD PUSH2 0x52D SWAP2 SWAP1 PUSH2 0x863 JUMP JUMPDEST SWAP1 DUP2 MSTORE PUSH1 0x40 MLOAD SWAP1 DUP2 SWAP1 SUB PUSH1 0x20 ADD SWAP1 KECCAK256 DUP1 SLOAD PUSH1 0xFF NOT AND PUSH1 0x1 DUP4 PUSH1 0x2 DUP2 GT ISZERO PUSH2 0x556 JUMPI PUSH2 0x556 PUSH2 0x7D3 JUMP JUMPDEST MUL OR SWAP1 SSTORE POP DUP2 PUSH1 0x40 MLOAD PUSH2 0x569 SWAP2 SWAP1 PUSH2 0x863 JUMP JUMPDEST PUSH1 0x40 MLOAD DUP1 SWAP2 SUB SWAP1 KECCAK256 PUSH32 0x97262B24BAEF48F505BE367ECB981993FBC99D26B3A33CFF4BB91FE82285EA69 DUP3 PUSH1 0x1 PUSH1 0x40 MLOAD PUSH2 0x309 SWAP3 SWAP2 SWAP1 PUSH2 0x81F JUMP JUMPDEST PUSH1 0x0 DUP1 PUSH1 0x2 DUP4 PUSH1 0x40 MLOAD PUSH2 0x5B6 SWAP2 SWAP1 PUSH2 0x863 JUMP JUMPDEST SWAP1 DUP2 MSTORE PUSH1 0x20 ADD PUSH1 0x40 MLOAD DUP1 SWAP2 SUB SWAP1 KECCAK256 SLOAD PUSH1 0x3 DUP5 PUSH1 0x40 MLOAD PUSH2 0x5D5 SWAP2 SWAP1 PUSH2 0x863 JUMP JUMPDEST SWAP1 DUP2 MSTORE PUSH1 0x40 MLOAD SWAP1 DUP2 SWAP1 SUB PUSH1 0x20 ADD SWAP1 KECCAK256 SLOAD SWAP1 SWAP5 PUSH1 0xFF SWAP1 SWAP2 AND SWAP4 POP SWAP2 POP POP JUMP JUMPDEST PUSH2 0x5FB PUSH2 0x631 JUMP JUMPDEST PUSH1 0x1 PUSH1 0x1 PUSH1 0xA0 SHL SUB DUP2 AND PUSH2 0x625 JUMPI PUSH1 0x40 MLOAD PUSH4 0x1E4FBDF7 PUSH1 0xE0 SHL DUP2 MSTORE PUSH1 0x0 PUSH1 0x4 DUP3 ADD MSTORE PUSH1 0x24 ADD PUSH2 0x299 JUMP JUMPDEST PUSH2 0x62E DUP2 PUSH2 0x65E JUMP JUMPDEST POP JUMP JUMPDEST PUSH1 0x0 SLOAD PUSH1 0x1 PUSH1 0x1 PUSH1 0xA0 SHL SUB AND CALLER EQ PUSH2 0x493 JUMPI PUSH1 0x40 MLOAD PUSH4 0x118CDAA7 PUSH1 0xE0 SHL DUP2 MSTORE CALLER PUSH1 0x4 DUP3 ADD MSTORE PUSH1 0x24 ADD PUSH2 0x299 JUMP JUMPDEST PUSH1 0x0 DUP1 SLOAD PUSH1 0x1 PUSH1 0x1 PUSH1 0xA0 SHL SUB DUP4 DUP2 AND PUSH1 0x1 PUSH1 0x1 PUSH1 0xA0 SHL SUB NOT DUP4 AND DUP2 OR DUP5 SSTORE PUSH1 0x40 MLOAD SWAP2 SWAP1 SWAP3 AND SWAP3 DUP4 SWAP2 PUSH32 0x8BE0079C531659141344CD1FD0A4F28419497F9722A3DAAFE3B4186F6B6457E0 SWAP2 SWAP1 LOG3 POP POP JUMP JUMPDEST PUSH4 0x4E487B71 PUSH1 0xE0 SHL PUSH1 0x0 MSTORE PUSH1 0x41 PUSH1 0x4 MSTORE PUSH1 0x24 PUSH1 0x0 REVERT JUMPDEST PUSH1 0x0 DUP3 PUSH1 0x1F DUP4 ADD SLT PUSH2 0x6D5 JUMPI PUSH1 0x0 DUP1 REVERT JUMPDEST DUP2 CALLDATALOAD PUSH8 0xFFFFFFFFFFFFFFFF DUP1 DUP3 GT ISZERO PUSH2 0x6F0 JUMPI PUSH2 0x6F0 PUSH2 0x6AE JUMP JUMPDEST PUSH1 0x40 MLOAD PUSH1 0x1F DUP4 ADD PUSH1 0x1F NOT SWAP1 DUP2 AND PUSH1 0x3F ADD AND DUP2 ADD SWAP1 DUP3 DUP3 GT DUP2 DUP4 LT OR ISZERO PUSH2 0x718 JUMPI PUSH2 0x718 PUSH2 0x6AE JUMP JUMPDEST DUP2 PUSH1 0x40 MSTORE DUP4 DUP2 MSTORE DUP7 PUSH1 0x20 DUP6 DUP9 ADD ADD GT ISZERO PUSH2 0x731 JUMPI PUSH1 0x0 DUP1 REVERT JUMPDEST DUP4 PUSH1 0x20 DUP8 ADD PUSH1 0x20 DUP4 ADD CALLDATACOPY PUSH1 0x0 PUSH1 0x20 DUP6 DUP4 ADD ADD MSTORE DUP1 SWAP5 POP POP POP POP POP SWAP3 SWAP2 POP POP JUMP JUMPDEST PUSH1 0x0 DUP1 PUSH1 0x40 DUP4 DUP6 SUB SLT ISZERO PUSH2 0x764 JUMPI PUSH1 0x0 DUP1 REVERT JUMPDEST DUP3 CALLDATALOAD PUSH8 0xFFFFFFFFFFFFFFFF DUP2 GT ISZERO PUSH2 0x77B JUMPI PUSH1 0x0 DUP1 REVERT JUMPDEST PUSH2 0x787 DUP6 DUP3 DUP7 ADD PUSH2 0x6C4 JUMP JUMPDEST SWAP6 PUSH1 0x20 SWAP5 SWAP1 SWAP5 ADD CALLDATALOAD SWAP5 POP POP POP POP JUMP JUMPDEST PUSH1 0x0 PUSH1 0x20 DUP3 DUP5 SUB SLT ISZERO PUSH2 0x7A8 JUMPI PUSH1 0x0 DUP1 REVERT JUMPDEST DUP2 CALLDATALOAD PUSH8 0xFFFFFFFFFFFFFFFF DUP2 GT ISZERO PUSH2 0x7BF JUMPI PUSH1 0x0 DUP1 REVERT JUMPDEST PUSH2 0x7CB DUP5 DUP3 DUP6 ADD PUSH2 0x6C4 JUMP JUMPDEST SWAP5 SWAP4 POP POP POP POP JUMP JUMPDEST PUSH4 0x4E487B71 PUSH1 0xE0 SHL PUSH1 0x0 MSTORE PUSH1 0x21 PUSH1 0x4 MSTORE PUSH1 0x24 PUSH1 0x0 REVERT JUMPDEST PUSH1 0x3 DUP2 LT PUSH2 0x807 JUMPI PUSH4 0x4E487B71 PUSH1 0xE0 SHL PUSH1 0x0 MSTORE PUSH1 0x21 PUSH1 0x4 MSTORE PUSH1 0x24 PUSH1 0x0 REVERT JUMPDEST SWAP1 MSTORE JUMP JUMPDEST PUSH1 0x20 DUP2 ADD PUSH2 0x819 DUP3 DUP5 PUSH2 0x7E9 JUMP JUMPDEST SWAP3 SWAP2 POP POP JUMP JUMPDEST DUP3 DUP2 MSTORE PUSH1 0x40 DUP2 ADD PUSH2 0x833 PUSH1 0x20 DUP4 ADD DUP5 PUSH2 0x7E9 JUMP JUMPDEST SWAP4 SWAP3 POP POP POP JUMP JUMPDEST PUSH1 0x0 PUSH1 0x20 DUP3 DUP5 SUB SLT ISZERO PUSH2 0x84C JUMPI PUSH1 0x0 DUP1 REVERT JUMPDEST DUP2 CALLDATALOAD PUSH1 0x1 PUSH1 0x1 PUSH1 0xA0 SHL SUB DUP2 AND DUP2 EQ PUSH2 0x833 JUMPI PUSH1 0x0 DUP1 REVERT JUMPDEST PUSH1 0x0 DUP3 MLOAD PUSH1 0x0 JUMPDEST DUP2 DUP2 LT ISZERO PUSH2 0x884 JUMPI PUSH1 0x20 DUP2 DUP7 ADD DUP2 ADD MLOAD DUP6 DUP4 ADD MSTORE ADD PUSH2 0x86A JUMP JUMPDEST POP PUSH1 0x0 SWAP3 ADD SWAP2 DUP3 MSTORE POP SWAP2 SWAP1 POP JUMP INVALID LOG2 PUSH5 0x6970667358 0x22 SLT KECCAK256 0xCC 0xA5 DUP11 0xF SELFBALANCE SWAP16 OR 0xCD CODESIZE SMOD 0xDC MSIZE DUP5 0xCA KECCAK256 0xC0 PC 0xB7 0xAB SWAP14 EXTCODEHASH 0xB0 COINBASE 0xC4 0xA6 0x5E DUP9 PUSH18 0x485F82C164736F6C63430008140033000000 "},"methodIdentifiers":{"commitTrustHash(string,bytes32)":"02b85fa0","commitWalletVerification(string,bytes32)":"a3261963","commitWebVerification(string,bytes32)":"1a22e681","getTrustHash(string)":"210f48af","getVerification(string)":"d0a028d1","isVerified(string)":"234c76d5","owner()":"8da5cb5b","renounceOwnership()":"715018a6","transferOwnership(address)":"f2fde38b","trustHashes(string)":"1e7e1dc6","verificationHashes(string)":"b05b3917","verificationTypes(string)":"7f31cfa9"}}}}}